:020000040800F2
:100000000000082089E90008A9AC0008D9E9000827
:10001000ABAC0008ADAC0008AFAC000800000000BD
:10002000000000000000000000000000C1540008B3
:10003000B1AC00080000000061550008C55500087B
:10004000D9E90008D9E90008D9E90008D9E9000888
:10005000D9E90008D9E90008D9E90008D9E9000878
:10006000D9E90008D9E90008D9E90008D9E9000868
:10007000D9E90008D9E90008D9E90008D9E9000858
:10008000D9E90008D9E90008D9E90008D9E9000848
:10009000D9E90008D9E90008D9E90008D9E9000838
:1000A000D9E90008B5AC0008D9E90008D9E9000889
:1000B000D9E90008D9E90008D9E90008D9E9000818
:1000C000D9E90008D9E90008D9E90008D9E9000808
:1000D000D9E90008D9E90008D9E90008D9E90008F8
:1000E000D9E90008D9E90008D9E90008D9E90008E8
:1000F000D9E90008D9E90008D9E90008D9E90008D8
:10010000D9E90008D9E90008D9E90008D9E90008C7
:10011000D9E90008D9E90008D9E90008D9E90008B7
:10012000D9E90008D9E90008D9E90008D9E90008A7
:10013000D9E90008C5AC0008D9E90008D9E90008E8
:10014000D9E90008D9E90008D9E90008D9E9000887
:10015000D9E90008D9E90008D9E90008D9E9000877
:10016000D9E90008D9E90008D9E90008D9E9000867
:10017000D9E90008D9E90008D9E900080000000021
:10018000D9E90008D9E90008D9E90008D9E9000847
:10019000D9E90008D9E90008D9E90008D9E9000837
:1001A000D9E90008D9E90008D9E90008D9E9000827
:1001B000D9E90008D9E90008D9E90008D9E9000817
:1001C000D9E90008D9E9000800000000D9E90008D1
:1001D000D9E90008D9E90008D9E90008D9E90008F7
:1001E000D9E90008D9E90008D9E90008D9E90008E7
:0801F000D9E90008D9E9000873
:1002000010B5054C237833B9044B13B10448AFF350
:1002100000800123237010BD80000020000000003A
:10022000E807010808B5034B1BB103490348AFF3C6
:10023000008008BD0000000084000020E8070108DD
:1002400010F8012B11F8013B012A28BF9A42F7D080
:10025000D01A7047034613F8012B002AFBD1181A55
:10026000013870470000000000000000000000009E
:1002700001F0FF01102A2BDB10F0070F08D010F857
:10028000013B013A8B422DD010F0070F42B3F6D15B
:10029000F0B441EA012141EA014122F007047FF074
:1002A00000070023F0E80256083C85EA010586EACB
:1002B000010685FA47F5A3FA87F586FA47F6A5FA07
:1002C00087F68EB9EED1F0BC01F0FF0102F0070213
:1002D00032B110F8013B013A83EA010313B1F8D1BE
:1002E0000020704701387047002D06BF354603389F
:1002F000073815F0010F07D1013015F4807F02BFD8
:10030000013015F4C03F0130F0BC0138704700BF28
:1003100053B94AB9002908BF00281CBF4FF0FF316C
:100320004FF0FF3001F0F8B8ADF1080C6DE904CEE4
:1003300000F006F8DDF804E0DDE9022304B07047C0
:100340002DE9F047089E04468846002B4BD18A428F
:10035000154667D9B2FA82F24AB1C2F1200701FA12
:1003600002F320FA07F7954047EA030894404FEA62
:10037000154E230CB8FBFEF71FFA85FC0EFB178801
:1003800043EA084307FB0CF1994209D9EB1807F13E
:10039000FF3080F01B81994240F21881023F2B44CC
:1003A0005B1AA4B2B3FBFEF00EFB103344EA034425
:1003B00000FB0CFCA44509D92C1900F1FF3380F097
:1003C0000781A44540F2048102382C4440EA0740EA
:1003D000A4EB0C0400271EB1D4400023C6E900435F
:1003E0003946BDE8F0878B4209D9002E00F0EB803A
:1003F0000027C6E9000138463946BDE8F087B3FA60
:1004000083F7002F47D18B4202D3824200F2FA8059
:10041000841A61EB030301209846002EE0D0C6E960
:100420000048DDE702B9FFDEB2FA82F2002A40F0AE
:100430008F80491B4FEA154E1FFA85F80127B1FB43
:10044000FEFC230C0EFB1C1143EA014308FB0CF1DC
:10045000994207D9EB180CF1FF3002D2994200F211
:10046000CD808446591AA3B2B1FBFEF00EFB1014E6
:1004700043EA044408FB00F8A04507D92C1900F111
:10048000FF3302D2A04500F2B6801846A4EB080460
:1004900040EA0C409FE7C7F1200CBB4022FA0CFE5B
:1004A0004EEA030E01FA07F420FA0CF521FA0CF3D8
:1004B0004FEA1E482543B3FBF8F92C0C08FB19330F
:1004C0001FFA8EFA44EA034309FB0AF49C4202FA3B
:1004D00007F200FA07F10BD91EEB030309F1FF3015
:1004E00080F087809C4240F28480A9F10209734425
:1004F0001B1BADB2B3FBF8F008FB103345EA034415
:1005000000FB0AFAA24508D91EEB040400F1FF33F0
:100510006BD2A24569D90238744440EA0940A0FB75
:100520000289A4EB0A044C45C2464B4654D351D031
:10053000002E69D0B1EB0A0564EB030404FA0CFC4D
:10054000FD40FC404CEA0505C6E90054002747E79A
:10055000C2F1200320FA03F7954001FA02F021FAD4
:1005600003F34FEA154E3843010CB3FBFEF71FFAB5
:1005700085F80EFB173341EA034107FB08F38B4272
:1005800004FA02F407D9691807F1FF3C2FD28B4215
:100590002DD9023F2944CB1A81B2B3FBFEF00EFBEA
:1005A000103341EA034100FB08F38B4207D9691875
:1005B00000F1FF3C17D28B4215D902382944C91AE1
:1005C00040EA07473BE73746304609E70746E7E694
:1005D0001846FBE64145ABD2B8EB020A69EB0E02C6
:1005E00001381346A4E76046E9E7184695E76746F1
:1005F000D1E781467CE702382C4447E7ACF1020C96
:100600002B442FE7384608E73746E9E603685A00E7
:100610004CBF43F0004323F000431844704700BF31
:1006200061B32DE9F84F01F1FF3A90460646D146F5
:10063000002707EB090404EBD4746410E50071197A
:100640000846FFF7E3FFA245834605F10800304462
:1006500009D0FFF7DBFFC34500F1FF3005D8404567
:1006600009D2671CE5E7C34505D9A74202D004F1CA
:10067000FF39DEE700210846BDE8F88F08467047DD
:10068000012807D0022807D0044B00280CBF1846C9
:100690000020704702487047024870476D0D0008FF
:1006A000710D0008750D000830B5254B83B0044668
:1006B0008D1E4BB301A92846AFF30080F0B101991C
:1006C0002A46FFF7ADFF0146C0B1FFF79FFF4B6819
:1006D000A064012B2ED0002B01F1040026DBFFF7D4
:1006E00095FF0023C4E913030368002B12DBFFF717
:1006F0008DFF00232061184603B030BD0023236125
:100700000923184603B030BD0E490F48091AC91015
:100710000191D5E7C3F30360FFF7B2FF002814BFD0
:10072000002309232061184603B030BD0123C4E92A
:100730001303D9E7002323610523184603B030BD16
:100740000000000018280108C02201080368DA0729
:1007500010B5044606D49B0700F1480009D500F007
:100760005FFC2368590709D51A070ED5DB0613D598
:1007700010BD00F04DFC23685907F5D404F1D000FA
:1007800000F056FC23681A07F0D404F5A87000F0B6
:1007900057FC2368DB06EBD404F5E870BDE8104095
:1007A00000F092BC036803B103441846704700BFD1
:1007B00009207047704700BF70B504460D4608E039
:1007C0002B6C63612A46236921460120984708283B
:1007D00008D1296C2046FFF767FF06460028EFD0B6
:1007E0000EF00BFE0728FBD13046296CFFF7E2FF25
:1007F000281D00F001FC00BF2DE9F0470C1D054647
:1008000017460FCCADF5727D03AE0FC60FCC0FC6E9
:100810000FCC0FC694E80F0002ACD5F80C80D5F8C9
:10082000189086E80F000023236021E0236C6B61A1
:100830004FF4F07221467AA80EF025FE2B697AAAB1
:10084000294630469847889BCDE900498246636433
:1008500031462B462A460120C0470746F8B94FF4D7
:10086000F0727AA920460EF00EFEBAF1080F1CD1E4
:10087000216C2846FFF718FF002F08BF09260746FE
:1008800018BF0A260028D1D0A36B46F01001CDE98D
:1008900000492A46636401202B46C04700B109275E
:1008A00038460DF5727DBDE8F087BAF1070FF6D135
:1008B0003846216CFFF77EFF03A800F09DFB00BFC8
:1008C000406C7047F0B5CB6B0B640D1D0F460646B0
:1008D0000FCDF9B001AC0FC40FCD0FC40FCD0FC4B5
:1008E00095E80F004FF0FF3584E80F00009506E013
:1008F00033696A46314698470828044608D110995A
:100900003046FFF7D1FE0028F2D0092079B0F0BDC3
:100910006846FFF71BFF062CF7D139463046FFF734
:100920004BFF00BF30B4DD6BC160826119461D64AE
:10093000002230BC60E700BF70B5C66843690B6435
:10094000BEB903690A4604460D460146022098478F
:10095000072807D0082803D129462046FFF72CFF97
:100960000EF04BFD3046296CFFF724FF281D00F0E8
:1009700043FB0122FFF740FF0EF03FFDC2681AB1B2
:10098000CA6B0A64002237E79CE700BF704700BFCC
:10099000836813B10146012018477047042907D81E
:1009A000DFE801F00308060808000BB90F2A03D995
:1009B000022070470120704700EB820218465368FE
:1009C000009A1360704700BF10B584B0002303ACD9
:1009D0000A4600941946FFF7E1FF039804B010BDE2
:1009E000042907D8DFE801F00308060808000BB95E
:1009F0000F2A03D9022070470120704700EB8200C4
:100A0000009A126842601846704700BF10B584B063
:100A100004AC002344F8042D0A4600941946FFF75D
:100A2000DFFF04B010BD00BFF0B5D36B1364151D1C
:100A300007460E460FCDADF50F7D17AC0FC40FCD99
:100A40000FC40FCD0FC495E80F004FF0FF3584E8B9
:100A50000F00169510E016A8FFF7D8FF314616A82C
:100A6000B84716AA694678B9049B08209847052814
:100A700004460AD0092807D026996846FFF714FED5
:100A80006A460C210028E6D0092416A8FFF75EFE6E
:100A900020460DF50F7DF0BD2DE9F04F0D46C96CD8
:100AA00089B00C1D164600F0030B0A6806941F4619
:100AB000002B68D0130CD9B212048DF81D3002231C
:100AC00004EB810405928DF81C302B6DBBF1020FF5
:100AD00008BFAC6B13F0010346D1019300F008038B
:100AE0000093D4F80090B9F1000F00F0F380022FCA
:100AF00045D0B4F80090B4F802800434AB6C28F010
:100B0000010A0F2130469A44FFF75EFF824534D830
:100B100029F001035344834294BF002001204FEA8F
:100B2000480808F0020809F0010948EA0908B8F184
:100B3000010F3AD031D3B8F1020F1AD1236823F054
:100B4000004ABBF1000F66D130B1009A002A6CD088
:100B5000BAF1000F00F09080002B00DA04340AF1A3
:100B6000010304EB8304BCE7304605A900F046FB13
:100B700078B1092009B0BDE8F08F0020CFE7D4F8A4
:100B800004800834BAE7120203230592ADF81C3042
:100B90009BE7082009B0BDE8F08FBBF1000F02D041
:100BA000002840F0B48004349BE7BBF1000F18D15B
:100BB000A8B1D4E90023991C4FEAD272D9D005F12B
:100BC00058010133049100F0B580201DFFF7EAFDC4
:100BD00004AB014628460DF023FF002867D10834F6
:100BE0007FE70D213046D5F82080FFF7EDFE8045E8
:100BF000F5D1AB6A9C42F2D12046FFF707FD0F21E9
:100C000002463046FFF702FF30462A460021FFF732
:100C1000FDFE0720AEE70D213046D5F82080FFF716
:100C2000D3FE804532D0236896E7BAF1000F23D077
:100C300005F1580304F10408CDF808B0DDF8009080
:100C40000397A3461C4602E05745B94640D04046AC
:100C50000494FFF7A7FD04AB0146002228460DF0DF
:100C6000DFFE09F1010708F104080028ECD0D145A6
:100C70005C46DDE902B7D6D130460D21FFF7A4FE70
:100C8000049B2862C5E90934062073E7AB6A9C42DD
:100C9000C9D104224FF00008A318C5E90AA8C5E984
:100CA0000C23236843454DDB0123019357E780461E
:100CB0000D213046FFF788FEB8F1020F28623ED1C1
:100CC0002B46049A43F82C2F6B62AC62062051E746
:100CD0005C46D1E705A9304600F090FA00287FF481
:100CE00048AF019B002B3FF454AF0F213046FFF774
:100CF0006BFE0E2102463046FFF788FE30461A4A48
:100D00000F21FFF783FE072009B0BDE8F08F2046D2
:100D1000FFF77CFC04340746AC6328460DF0DEFE8A
:100D200000283FF426AF30463A460F21FFF76EFE0B
:100D300007201FE730460D21FFF746FE2862049B7F
:100D40006B62C2E70AF1010004EB8000FFF75EFC72
:100D50000F2102463046FFF759FE30462A464146EB
:100D6000FFF754FE072005E745F30008002393E64C
:100D7000012391E602238FE62DE9F0410546C4B038
:100D8000042906D8DFE801F04D2B05030900032BE9
:100D90005FD0022044B0BDE8F081002BF9D1102AC9
:100DA000F7D82B68DC0600F1F48022AC20460192D3
:100DB00000F094F9A86B019A0023012606FA03F1CA
:100DC000114203D0016844F8231004300133042B8E
:100DD000F4D1A863204600F077F90020DAE7012B70
:100DE0004FEA124697B252D0052BD2D106EB070834
:100DF000B8F1200FCDD80F2E40F29980B846002FC1
:100E000040F0DB80AA6BAA630F2E40F2BE80B8F1DF
:100E1000000F02D002A800F00BF9002044B0BDE89A
:100E2000F081002BB5D1AC6B97B2281D012606FAD4
:100E300003F1394203F1010302D021680160043457
:100E4000102B00F10400F2D112F40050E5D1AC6394
:100E5000A0E7160C97B2F319102B9AD82B681A0733
:100E60005DD422AC204600F00DF904EBC601AB6B5B
:100E70003FB103EBC702186841F8040B04339342F7
:100E8000F9D12046AB6300F0DBF8002082E7F219CD
:100E9000102A3FF67EAF0F2E3FF67BAF2A68D107B0
:100EA00008D5284622F0030240F8482B019300F0B1
:100EB000B3F8019B019322AC204600F0ADF8A96B7A
:100EC000019B002F00F095807F0004EBC6044FF0DB
:100ED0000008043C01EB870251F8040B44F8040FAE
:100EE0009142F9D1B8F1000F0FD002AC102E31466B
:100EF00038BF102104EBC101843902EBC80452F859
:100F0000040B41F8040F9442F9D1012B7FF47BAF1D
:100F100022AC0432AA63204600F07AF87DE723F081
:100F200008032B6005F5A87000F0ACF899E7B8F15C
:100F3000100F2A6843D9D007A8F110080BD528460E
:100F400022F0010242F0020240F8482B019300F027
:100F50006BF82A68019B510725D40F2E04D822A8CC
:100F6000019300F061F8019B019302AC204600F070
:100F700063F8C6F110010029AA6B019BB6DD22AC13
:100F80004F0004EBC6041146A3E722A800F048F87E
:100F90003DE723F010032B6005F5E870019200F0A7
:100FA0009DF8019A01E7284622F0040240F8D02B70
:100FB000019300F041F8019BCFE72A68CBE7D00707
:100FC0000AD5284622F0010242F0020240F8482BDE
:100FD000019300F029F8019B019322AC204600F018
:100FE00023F8B846A96B019B002F7FF46DAF0A462A
:100FF00009E70A468DE700BF00F1340191E83800A7
:101000009C46A6464CF8045D90E8FF0FE54600BDFF
:1010100090EC210B704700BF80EC210B704700BFA4
:1010200090EC200B704700BF80EC200B704700BF96
:10103000D0EC200B704700BFC0EC200B704700BF06
:10104000F0EC0201F0EC0211F0EC0221F0EC0231C4
:10105000F0EC0241F0EC0251F0EC0261F0EC0271B4
:10106000F0EC0281F0EC0291F0EC02A1F0EC02B1A4
:10107000F0EC02C1F0EC02D1F0EC02E1F0EC02F194
:10108000704700BFE0EC0201E0EC0211E0EC02214D
:10109000E0EC0231E0EC0241E0EC0251E0EC0261F4
:1010A000E0EC0271E0EC0281E0EC0291E0EC02A1E4
:1010B000E0EC02B1E0EC02C1E0EC02D1E0EC02E1D4
:1010C000E0EC02F1704700BFB0FC0181B0FC01917F
:1010D000B0FC01A1B0FC01B1704700BFA0FC0181D0
:1010E000A0FC0191A0FC01A1A0FC01B1704700BFD0
:1010F000EC4600B52DE900502DE9FF1F4FF000032D
:101100002DE90C0001A9FFF7DDFBDDF840E012B08E
:10111000704700BFEC4600B52DE900502DE9FF1FD8
:101120004FF000032DE90C0001A9FFF705FCDDF8E5
:1011300040E012B0704700BFEC4600B52DE900500A
:101140002DE9FF1F4FF000032DE90C0001A9FFF767
:1011500015FCDDF840E012B0704700BFEC4600B56A
:101160002DE900502DE9FF1F4FF000032DE90C0081
:1011700001ABFFF7D7FBDDF840E012B0704700BFCE
:10118000EC4600B52DE900502DE9FF1F4FF000039C
:101190002DE90C0001AAFFF747FCDDF840E012B092
:1011A000704700BF027A82B9437AABB14268013B13
:1011B00010B4437213680321141D01721A024460B3
:1011C00002605DF8044B180E70470368013A027222
:1011D0001A020260180E7047B020704700B585B043
:1011E00003AA0023009219460C22FFF7D7FB0398AD
:1011F00005B05DF804FB00BFF0E700BF2DE9F04348
:10120000054685B00E464FF000083046FFF7CAFF8E
:10121000B028044600F0B180070620D500F0F003A6
:10122000802B65D0902B36D0A02B78D0B02B47D018
:10123000C02B00F08A8000F0F803D02B0BD100F017
:101240000702013242F40022052301212846FFF75C
:1012500093FD0028D9D0092005B0BDE8F0830DF139
:101260000C09002319468700CDF800900D2228466E
:10127000FFF794FBFFB2039BCDF8009004376006A4
:101280004CBFDF1BFF18002319460D222846039789
:10129000FFF7A6FBB9E700F00D030D2BDBD003AF82
:1012A000002300F00F02194600972846FFF776FB4F
:1012B0000023009719460D222846FFF791FBA4E76B
:1012C000B1285FD0B22800F0CC80B3287ED000F0E7
:1012D000FC03B42BBFD000F007020132012342F41B
:1012E000002219462846FFF747FD00288DD0B2E7B7
:1012F0003046FFF757FF24020443B4F5004FAAD04D
:1013000024010023A2B219462846FFF735FD002824
:10131000A1D114F4004F18BF4FF0010875E7C24384
:1013200002F007034FF47F621A41010702F47F6263
:101330004FF0000348BF42F4804219462846FFF7A9
:101340001BFD00283FF461AF85E7C62851D0C728B0
:101350005AD000F0F803C02B69D0C82875D0C9282E
:101360007FF479AF3046FFF71DFF020300F00F0056
:1013700002F470220130024366E7B8F1000F14D086
:10138000002069E73046FFF70DFF00283FF463AF08
:1013900010F0F0037FF45FAF024619462846FFF7CE
:1013A000EBFC00283FF431AF55E703AC43460E2277
:1013B000414600942846FFF7F1FA00942846434638
:1013C0000F224146FFF70CFB404645E73046FFF74A
:1013D000E9FE010300F00F0001F47021421C01231B
:1013E0000A4328461946FFF7C7FC00283FF40DAF13
:1013F00031E73046FFF7D6FE010300F00F0001F49D
:101400007021421C0323EBE73046FFF7CBFE024678
:1014100000283FF420AF10F0F0037FF41CAF04214C
:101420002846FFF7A9FC00283FF4EFAE13E700F0D1
:101430000F020132032342F4202219462846FFF707
:101440009BFC00283FF4E1AE05E73046FFF7AAFE1B
:1014500000F0F00200F00F031032013343EA0232D1
:10146000F2E600230DF10C090D221946CDF800908B
:101470002846FFF793FA3046FFF794FE02064FF036
:1014800002070CD5039B00F07F00B84003443046B0
:101490000393FFF787FE030607F10707F2D4039BC8
:1014A000CDF8009000F07F0403F50172BC400023EA
:1014B000144419460D2228460394FFF791FAA4E636
:1014C00010B5C36C84B05A6803208DF80C00DC7929
:1014D0008DF80D4012020833084601A901920293CB
:1014E000FFF78CFE04B010BD08B5FFF785FE806CD9
:1014F00008BD00BF08B5FFF77FFEC06CC37900EBE5
:101500008300083008BD00BF08B50DF076FF00BFAE
:1015100008B5FFF7F9FF00BF704700BF08B503200B
:1015200000F02EF8002009F083FB09F0BBFA002040
:1015300008BD0000034A1168034B1B780B4413607D
:10154000704700BFE859002000000020014B1868D8
:10155000704700BFE859002038B50446FFF7F6FF92
:101560000546B4F1FF3F02D0044B1B781C44FFF743
:10157000EDFF401BA042FAD338BD00BF00000020A1
:101580000649CB6823F4E0631B041B0C000200F443
:10159000E0600343024A1A43CA60704700ED00E06E
:1015A0000000FA0530B4154BDB68C3F30223C3F126
:1015B0000704042C28BF04241D1D062D14D9033B49
:1015C0004FF0FF3505FA04F421EA0401994005FAC9
:1015D00003F322EA03031943002807DB0901C9B218
:1015E000074B195430BC70470023E9E700F00F00A7
:1015F0000901C9B2034B1954F4E700BF00ED00E044
:1016000000E400E014ED00E0002807DB00F01F021A
:10161000400901239340024A42F82030704700BF3E
:1016200000E100E05079137943EA002307480B50AA
:10163000D07893781B0443EA0063507843EA002390
:1016400012781343024A8B50704700BF408002401B
:1016500044800240016841F218028B5843F4005361
:101660008B507047016841F218028B5843F0020317
:101670008B50704770B59EB0044629B14FF400639B
:10168000C3604FF480438360E369002B68D14FF45B
:101690008063079321680B68374A1A40A368E068A3
:1016A00003430798034343F4007313430B60236819
:1016B0001D680120FFF750FF23681D602368412249
:1016C0005A6023685D680120FFF746FF23685D606C
:1016D000236800259D602368DD602268936923F0FC
:1016E000BE031B041B0C43F08003936123689E69B7
:1016F0000120FFF731FF23689E612368DD612368C5
:10170000DD690120FFF728FF2368DD61216841F2D0
:1017100018054B59194A1A40194B13434B5123686A
:101720005E590120FFF718FF23685E51236803F517
:101730008053144A1A60236803F580531D68012002
:10174000FFF70AFF236803F580531D60A369012B8F
:1017500009D0626900212046FFF764FF1EB070BD0A
:101760000023079396E7216841F21C028858064B34
:1017700003438B50EDE700BF0F8120FF233FDEF8CE
:10178000040020028020C1024000010010B582B098
:101790000446002301930268136843F008031360B2
:1017A00003681B6801930120FFF7D6FE2368019AA6
:1017B0001A6002B010BD10B582B004460023019338
:1017C0000268136843F00403136003681B68019305
:1017D0000120FFF7C1FE2368019A1A6002B010BD14
:1017E00030B583B0054600230193026841F2180426
:1017F000135943F48013135103681B5901930120BB
:10180000FFF7AAFE2B68019A1A5103B030BDF0B45D
:1018100090F84540012C31D0012480F84540022445
:1018200080F84440C162002401E0F96001349C4228
:1018300017D265014F194FF480164E5140F2F456FD
:1018400006FB0426BE60C6691EB94E5946F4400622
:101850004E515D1EA542E8D9651C01EB4515FD60A2
:10186000E4E7026841F21003D150012380F84430CC
:10187000002380F845301846F0BC70470220FBE793
:10188000F0B490F84540012C2ED0012480F845405A
:10189000022480F844408162002401E0E9600134C0
:1018A0009C4214D266018D194FF000478F5144F2CB
:1018B000F4566E6040F2F45606FB0426AE605E1EDF
:1018C000A642EBD9661C01EB4616EE60E7E702681C
:1018D00041F20C03D150012380F84430002380F8FA
:1018E00045301846F0BC70470220FBE790F84530C1
:1018F000012B00F08580012380F84530022380F819
:101900004430B1B1C36A1A68002A1ADB30B440F21D
:10191000F45291421DD93B4AA2FB0142920A40F285
:10192000F45404FB121404B10132012A11D0002333
:1019300047E0012380F84430002280F84520184613
:101940007047122380F84430002380F8453001208E
:1019500070471A6842F040521A60C36AC1F30C0122
:101960005960C26A136843F000431360C36ADB68BE
:10197000C362036841F214029A5812F0040F08D0AF
:1019800041F2140204219950026841F2040300213B
:10199000D150012380F84430002380F845301846A8
:1019A00030BC7047C56A2C6844F080542C6011E04C
:1019B000C56A2C6844F000442C60C46AE468C462C0
:1019C00001339A42D5D9C56A2C6824F040542C6062
:1019D000002BE7D0C46A40F2F4556560541E9C4267
:1019E000E6D1C56A2C6844F000542C60064C04FB18
:1019F000021404F2F454C56AC4F30C046C60D7E713
:101A0000022070470BB002AC0CFAFFFF90F8453093
:101A1000012B45D0012380F84530022380F8443063
:101A20000021836A1A68002A32DB032930D8013189
:101A30001A6802F44072B2F5007F09D01A6812F4F5
:101A4000407F0BD1826B01328263DB688362E8E7FF
:101A5000036301228263DB688362E2E74363826B94
:101A600001328263012A11D01A68C2F30D42043A8E
:101A7000C263026B92680264DB688362012380F8B0
:101A80004430002380F84530184670470363EBE785
:101A9000012380F84430002280F845201846704722
:101AA000022070477047704710B50446036841F242
:101AB00014029A5812F0400F11D141F214029B58AF
:101AC00013F0010F19D1226841F214034FF4803151
:101AD000D1502268D35813F4004F1BD110BD07F02A
:101AE00011FD226841F214034021D150012384F8F2
:101AF0004430002384F84530E5E7FFF7D3FF216841
:101B0000012341F214028B5084F84430002384F8FE
:101B10004530D8E72046FFF7C6FF226841F214039C
:101B20004FF40041D150012384F84430002384F85D
:101B30004530D3E7F8B590F84430DBB2822B33D090
:101B400016460546822380F844300268136903F084
:101B50001C03048AE402A4B223438C0104F4F86455
:101B60001C4344F001041461FFF7F0FC074614F035
:101B7000010F10D0FFF7EAFCC01BB0F5803F02D286
:101B80002B681C69F3E7012385F84430002385F8AE
:101B90004530032007E02B685B699BB2336001236B
:101BA00085F844300020F8BD0220FCE790F844306E
:101BB000DBB2422B32D070B50546422380F8443068
:101BC0000068036903F01C032C8AE402A4B22343D7
:101BD0008C0104F4F8641C4344F0030492B24261A3
:101BE0002B681C61FFF7B2FC064614F0010F10D001
:101BF000FFF7ACFC801BB0F5803F02D22B681C695C
:101C0000F3E7012385F84430002385F845300320AD
:101C100003E0012385F84430002070BD02207047A6
:101C200070B582B000230193002800F00C810446B7
:101C300090F84430002B32D0844B5A6C42F48042EE
:101C40005A645B6C03F480430093009B804B5A689A
:101C500022F400025A605A68216A0A435A602368D3
:101C600003F580531A6842F001021A60FFF76EFC18
:101C70000546236803F58052126812F0010F13D055
:101C8000FFF764FC401BB0F5FA7FF2D9032584F816
:101C90004450002384F84530284602B070BD80F8D7
:101CA000453007F0A5FBC7E71D6925F01C0500F0CE
:101CB000EDFD684B0344684A934255D845F008054A
:101CC00023681D614FF4004200212046FFF76EFF9C
:101CD0000546002860D1FF20FFF73EFC6368002B1B
:101CE00000F09180FFF732FC064601AA0121204650
:101CF000FFF720FFFFF72AFC801B41F28833984250
:101D000052D8019B13F0040FEFD04FF48052002102
:101D10002046FFF74BFF002852D1FFF717FC06467D
:101D200001AA01212046FFF705FFFFF70FFC801BEA
:101D300041F2883398424BD8019B13F0200FEFD02B
:101D400001AA1F212046FFF7F5FE00284CD1019B78
:101D500013F0100F50D04FF40062E26013F0040F44
:101D60004DD00023A3605EE03C4B03443C4A9342C9
:101D700002D845F00C05A3E73A4B03443A4A934294
:101D80009ED93A4B03443A4A934202D845F004059F
:101D900096E745F0100593E701212046FFF76AFC1E
:101DA000012584F8445077E701212046FFF762FCC3
:101DB000012384F84430002384F8453003256BE781
:101DC00001212046FFF756FC012584F8445063E7C3
:101DD00001212046FFF74EFC012384F84430002304
:101DE00084F84530032557E701212046FFF742FCE0
:101DF000012584F844504FE70022E260AEE74FF43B
:101E00008043A3600FE0E268C2F3CF02A368C3F38C
:101E10004F031A4300212046FFF7C8FE58B940F689
:101E2000FF70FFF799FB00212046FFF723FC0123F9
:101E300084F8443030E701212046FFF71BFC0125E0
:101E400084F8445028E7012526E700BF0038024007
:101E50000038014000D3CEFEBFE1E40040F1E9FDCF
:101E60003F787D0100796CFCFF596202001F0AFA7D
:101E70007FF0FA0238B590F84530012B1AD00446AD
:101E8000012580F84550022380F84430FFF77EFC9E
:101E90002046FFF790FC2046FFF7A2FC2046FFF704
:101EA000D9FB2046FFF7DEFB84F84450002084F87D
:101EB000450038BD0220FCE700230F2B00F2E28032
:101EC000F0B482B039E0092200E00022B2403A4387
:101ED00002346D4E46F824206C4A1468EA4302EA44
:101EE00004064F6817F4803F01D045EA0406674CAA
:101EF0002660646802EA04064F6817F4003F01D0C8
:101F000045EA0406614C6660A46802EA04064F686C
:101F100017F4801F01D045EA04065C4CA660E46813
:101F200022404E6816F4001F01D045EA0402574CC7
:101F3000E26001330F2B00F2A28001229A400C686C
:101F400004EA0205AA42F4D14C68122C18BF022CF4
:101F500010D1DE08083650F826C003F00704A700A9
:101F60000F24BC402CEA040C0C69BC4044EA0C046D
:101F700040F8264004685F000326BE40F64306EAA8
:101F8000040C4C6804F00304BC4044EA0C040460F4
:101F90004C6804F1FF3C112C18BFBCF1010F01D9B2
:101FA000122C11D1846806EA040CCC68BC4044EAC7
:101FB0000C048460446824EA020C4C68C4F30012E8
:101FC0009A4042EA0C024260C26816408A68BA40EF
:101FD0003243C2604A6812F0805FAAD02C4A546C27
:101FE00044F480445464526C02F480420192019A99
:101FF0009C08A61C244A52F8267003F0030296009F
:102000000F22B24027EA0207224A90423FF45DAF16
:1020100002F58062904222D002F58062904220D088
:1020200002F5806290421ED002F5806290421CD080
:1020300002F5806290421AD002F58062904218D078
:1020400002F58062904216D002F58062904214D070
:1020500002F5806290423FF436AF0A2236E7012251
:1020600034E7022232E7032230E704222EE705227A
:102070002CE706222AE7072228E7082226E702B0F3
:10208000F0BC7047704700BF00380140003C014081
:10209000003802400000024012B909048161704713
:1020A00081617047F0B58BB0002800F08A8004464B
:1020B00090F8BD33F3B1032384F8BD33206801F0F9
:1020C00021FC254655F8107B6E460FCD0FC60FCD6F
:1020D0000FC695E8030086E80300231D0ECB3846A3
:1020E00001F0D2FB58B1022384F8BD330125284604
:1020F0000BB0F0BD80F8BC3308F052FDDBE70021E7
:10210000206801F005FC002315E0D900C81A820000
:102110002244012082F83D0082F83C30A2F842308F
:10212000002082F83F0050649064CA1A9100214454
:1021300008650133DBB26568AB42E6D3002315E0E6
:10214000D800C11A8A002244002182F8FD1182F8C9
:10215000FC3182F8FF11C2F80412C2F80812C21A48
:1021600090002044C0F810120133DBB29D42E7D842
:10217000254655F8107B6E460FCD0FC60FCD0FC606
:1021800095E8030086E80300231D0ECB384601F0D6
:1021900005FC054660B9002384F83830012384F833
:1021A000BD33636A012B08D0206801F0D1FC9EE7A3
:1021B000022384F8BD33012599E7204600F004F896
:1021C000F2E7012593E70000024603680121C0F809
:1021D000FC13002082F8F4039A6942F000629A61CD
:1021E000596D024A0A435A65704700BF0300001048
:1021F000024A136843F48073136070470070004014
:1022000010B582B01B4B1A6C42F080521A641B6CE2
:1022100003F080530193019B174A136843F4803302
:102220001360FFF793F90446134B5B6813F4803F88
:1022300008D1FFF78BF9001BB0F57A7FF4D90320A2
:1022400002B010BD0C4A136843F400331360FFF76B
:102250007DF90446084B5B6813F4003F07D1FFF794
:1022600075F9001BB0F57A7FF4D90320E8E7002068
:10227000E6E700BF0038024000700040002800F090
:10228000DC8170B582B00446036813F0010F29D0D9
:10229000A24B9B6803F00C03042B1AD09F4B9B6846
:1022A00003F00C03082B0FD06368B3F5803F40D0D8
:1022B000002B54D1994B1A6822F480321A601A68A4
:1022C00022F480221A6039E0944B5B6813F4800F8B
:1022D000EAD0924B1B6813F4003F03D06368002BD5
:1022E00000F0AD81236813F0020F75D08B4B9B6813
:1022F00013F00C0F5ED0894B9B6803F00C03082B86
:1023000053D0E368002B00F08A80844A136843F0BE
:1023100001031360FFF71AF90546804B1B6813F0A1
:10232000020F73D1FFF712F9401B0228F5D90320E1
:1023300088E17A4A136843F48033136063682BB3EF
:10234000FFF704F90546754B1B6813F4003FC9D12C
:10235000FFF7FCF8401B6428F5D9032072E1B3F5C0
:10236000A02F09D06D4B1A6822F480321A601A68C7
:1023700022F480221A60E1E7684B1A6842F4802256
:102380001A601A6842F480321A60D7E7FFF7DEF865
:102390000546624B1B6813F4003FA3D0FFF7D6F845
:1023A000401B6428F5D903204CE15C4B5B6813F4B7
:1023B000800FA6D1594B1B6813F0020F04D0E368BD
:1023C000012B01D001203DE1544A136823F0F803AA
:1023D000216943EAC1031360236813F0080F46D054
:1023E000636983B34D4A536F43F001035367FFF7AB
:1023F000ADF80546494B5B6F13F0020F37D1FFF77D
:10240000A5F8401B0228F5D903201BE1434A1368B5
:1024100023F0F803216943EAC1031360DCE73F4A74
:10242000136823F001031360FFF790F805463B4B58
:102430001B6813F0020FCFD0FFF788F8401B02286B
:10244000F5D90320FEE0354A536F23F001035367AB
:10245000FFF77CF80546314B5B6F13F0020F06D097
:10246000FFF774F8401B0228F5D90320EAE023683F
:1024700013F0040F7ED0294B1B6C13F0805F1ED12C
:10248000264B1A6C42F080521A641B6C03F0805386
:102490000193019B0125224B1B6813F4807F10D010
:1024A000A368012B21D0002B3CD11C4B1A6F22F0CA
:1024B00001021A671A6F22F004021A671AE0002557
:1024C000E9E7174A136843F480731360FFF73EF897
:1024D0000646134B1B6813F4807FE1D1FFF736F8F3
:1024E000801B6428F5D90320ACE00C4A136F43F03D
:1024F00001031367A3685BB3FFF728F80646074B91
:102500001B6F13F0020F34D1FFF720F8801B41F24C
:1025100088339842F3D9032094E000BF003802408A
:1025200000700040052B09D0484B1A6F22F00102C1
:102530001A671A6F22F004021A67DBE7434B1A6F1F
:1025400042F004021A671A6F42F001021A67D1E7DB
:10255000FEF7FCFF06463D4B1B6F13F0020F08D041
:10256000FEF7F4FF801B41F288339842F3D9032031
:1025700068E0F5B9A369002B63D0344A926802F091
:102580000C02082A60D0022B19D0304A136823F0BD
:1025900080731360FEF7DAFF04462C4B1B6813F0C0
:1025A000007F48D0FEF7D2FF001B0228F5D9032098
:1025B00048E0264A136C23F080531364DAE7234A79
:1025C000136823F080731360FEF7C0FF05461F4BAE
:1025D0001B6813F0007F06D0FEF7B8FF401B0228EF
:1025E000F5D903202EE0E369226A1343626A43EAC5
:1025F0008213A26A5208013A43EA0243E26A43EABA
:102600000263226B43EA0273104A5360136843F07B
:1026100080731360FEF79AFF04460C4B1B6813F09F
:10262000007F06D1FEF792FF001B0228F5D9032098
:1026300008E0002006E0002004E0012070470120AF
:1026400000E0002002B070BD0120FBE7003802402E
:10265000324B9B6803F00C03042B5CD0082B01D099
:102660002F4870472DE9F04B2C4B5A6802F03F027F
:102670005B6813F4800F2BD0284B5B68C3F388137F
:102680001E4600275C010025E41A65EB0705A90139
:1026900041EA9461A001001B61EB0501CB0043EA14
:1026A0005073C400A01943EB07014B0243EAD05317
:1026B0004402204619460023FDF72AFE174B5B68AB
:1026C000C3F3014301335B00B0FBF3F0BDE8F08BD3
:1026D000124B5B68C3F388131E4600275C0100257C
:1026E000E41A65EB0705A90141EA9461A001001B0A
:1026F00061EB0501CB0043EA5073C400A01943EB22
:1027000007018B0243EA90538402204619460023B6
:10271000FDF7FEFDD2E70348704700BF00380240D6
:102720000024F40000127A00002800F0A28070B5A6
:102730000446524B1B6803F00F038B420CD24F4AE6
:10274000136823F00F030B431360136803F00F03A8
:102750008B4201D0012070BD236813F0020F17D007
:1027600013F0040F04D0464A936843F4E053936097
:10277000236813F0080F04D0414A936843F4604380
:1027800093603F4A936823F0F003A068034393608B
:102790000D46236813F0010F31D06368012B20D060
:1027A000022B25D0364A126812F0020F63D034494A
:1027B0008A6822F0030213438B60FEF7C7FE0646C9
:1027C0002F4B9B6803F00C036268B3EB820F16D0AB
:1027D000FEF7BCFE801B41F288339842F0D90320FB
:1027E000B9E7274A126812F4003FE0D10120B2E7AE
:1027F000234A126812F0007FD9D10120ABE71F4BAA
:102800001B6803F00F03AB420CD91C4A136823F07A
:102810000F032B431360136803F00F03AB4201D087
:10282000012098E7236813F0040F06D0144A936838
:1028300023F4E053E1680B439360236813F0080F1F
:1028400007D00F4A936823F46043216943EAC10328
:102850009360FFF7FDFE0A4B9B68C3F30313094A1D
:10286000D35CD840084B1860002008F0E1F9002044
:1028700071E70120704701206DE700BF003C024076
:10288000003802401809010810000020014B1868A8
:10289000704700BF1000002008B5FFF7F7FF044B9A
:1028A0009B68C3F38223034AD35CD84008BD00BFB2
:1028B000003802402809010808B5FFF7E7FF044B7C
:1028C0009B68C3F34233034AD35CD84008BD00BFC2
:1028D00000380240280901080F2303600B4B9A6857
:1028E00002F0030242609A6802F0F00282609A6885
:1028F00002F4E052C2609B68DB0803F4E05303611A
:10290000034B1B6803F00F030B6070470038024055
:10291000003C0240F0B583B00446036813F0010F99
:102920000CD0B54B9A6822F400029A609A68416B09
:102930000A439A60436BC3B1002600E00026236877
:1029400013F4002F15D0AC4AD2F88C3023F4401386
:10295000E16B0B43C2F88C30E36BB3F5801F06D0FC
:10296000002B00F04581002504E00126E7E7012661
:10297000F6E70025236813F4801F0FD09E4AD2F893
:102980008C3023F44003216C0B43C2F88C30236C51
:10299000B3F5800F00F02E8103B90125236813F0F1
:1029A000807F00D0012613F0200F40F0278123689C
:1029B00013F0100F0CD0904BD3F88C2022F08072C3
:1029C000C3F88C20D3F88C20A16B0A43C3F88C2069
:1029D000236813F4804F08D0874AD2F8903023F44C
:1029E0004033616E0B43C2F89030236813F4004FFC
:1029F00008D0814AD2F8903023F44023A16E0B43D3
:102A0000C2F89030236813F4803F08D07A4AD2F895
:102A1000903023F44013E16E0B43C2F890302368EA
:102A200013F4003F08D0744AD2F8903023F44003E6
:102A3000216F0B43C2F89030236813F0400F08D089
:102A40006D4AD2F8903023F00303616C0B43C2F857
:102A50009030236813F0800F08D0674AD2F8903086
:102A600023F00C03A16C0B43C2F89030236813F4DD
:102A7000807F08D0604AD2F8903023F03003E16CB8
:102A80000B43C2F89030236813F4007F08D05A4AF1
:102A9000D2F8903023F0C003216D0B43C2F8903080
:102AA000236813F4806F08D0534AD2F8903023F48F
:102AB0004073616D0B43C2F89030236813F4006FCC
:102AC00008D04D4AD2F8903023F44063A16D0B43F7
:102AD000C2F89030236813F4805F08D0464AD2F8D9
:102AE000903023F44053E16D0B43C2F890302368DB
:102AF00013F4005F08D0404AD2F8903023F44043EA
:102B0000216E0B43C2F89030236813F4800F08D075
:102B1000394AD2F8903023F08063A16F0B43C2F89A
:102B20009030236813F4001F0DD0334AD2F8903050
:102B300023F00063E16F0B43C2F89030E36FB3F111
:102B4000006F00F0C180236813F0080F00D001254A
:102B500013F4802F08D0284AD2F8903023F0407325
:102B6000616F0B43C2F89030236813F4000F09D053
:102B7000214AD2F8903023F08053D4F880100B43D0
:102B8000C2F89030236813F0806F09D01A4AD2F847
:102B9000903023F00053D4F884100B43C2F89030E7
:102BA000236813F0006F09D0134AD2F88C3023F059
:102BB0000073D4F888100B43C2F88C30236813F0EC
:102BC000805F09D00C4AD2F88C3023F08063D4F8AF
:102BD0008C100B43C2F88C30002E77D12368B3F1F0
:102BE000007F73D0002D40F00481002003B0F0BDC1
:102BF0000125BFE60126CFE600380240B74B1A6C2C
:102C000042F080521A641B6C03F080530193019BC5
:102C1000B34A136843F480731360FEF797FC0746CA
:102C2000AF4B1B6813F4807F06D1FEF78FFCC01BEF
:102C30006428F5D90320D9E7A84B1B6F13F4407320
:102C400015D0226B02F440729A4210D0A34B1A6F37
:102C500022F44072196F41F480311967196F21F421
:102C6000803119671A671B6F13F0010F12D1236BA4
:102C700003F44072B2F5407F1DD0984A936823F464
:102C8000F813936095490B6F226BC2F30B02134349
:102C90000B678CE6FEF75AFC0746904B1B6F13F050
:102CA000020FE4D1FEF752FCC01B41F28833984278
:102CB000F3D903209AE78948826822F4F8128949F7
:102CC00019400A438260DDE701253CE7834A136827
:102CD00023F080631360FEF739FC06467F4B1B68C8
:102CE00013F0006F06D0FEF731FC801B6428F5D985
:102CF00003207BE7236813F0010F13D0636B8BB9BC
:102D0000764AD2F88430D2F88410606803F44033F5
:102D100043EA801301F070610B43A16843EA017339
:102D2000C2F88430236813F4002F03D0E26BB2F5AD
:102D3000801F06D013F4801F1ED0236CB3F5800FC4
:102D40001AD1664AD2F88430D2F88410606803F44D
:102D5000403343EA8013E06843EA006301F0E04156
:102D60000B43C2F88430D2F88C3023F01F03616A21
:102D700001390B43C2F88C30236813F0807F11D0E7
:102D8000564AD2F88400D2F88410666823691B047E
:102D900043EA861300F07060034301F0E0410B4307
:102DA000C2F88430236813F0007F0DD06268236975
:102DB0001B0443EA8213E26843EA0263A26843EA1F
:102DC0000273464AC2F88430444A136843F0806371
:102DD0001360FEF7BBFB0646404B1B6813F0006F09
:102DE0007FF400AFFEF7B2FB801B6428F4D9032008
:102DF000FCE63A4A136823F080531360FEF7A6FB03
:102E00000546364B1B6813F0005F06D0FEF79EFBAD
:102E1000401B6428F5D90320E8E6236813F4002F4B
:102E200001D0E26B22B113F4801F1DD0236CDBB9FB
:102E30002A4AD2F88830D2F88810606903F4403307
:102E400043EA8013A06943EA006301F0E0410B43C9
:102E5000C2F88830D2F88C3023F4F853A16A0139D3
:102E600043EA0123C2F88C30236813F4001F03D017
:102E7000E36FB3F1006F37D0236813F0080F19D058
:102E8000164AD2F88810D2F88830606903F44033CB
:102E900043EA801301F070610B43E16943EA017377
:102EA000C2F88830D2F88C3023F44033E16A0B4307
:102EB000C2F88C30094A136843F080531360FEF760
:102EC00045FB0446054B1B6813F0005F1FD1FEF75E
:102ED0003DFB001B6428F5D9032087E6003802403B
:102EE00000700040FFFCFF0F0A4AD2F88800D2F8B9
:102EF00088106569236A1B0443EA851300F070603B
:102F0000034301F0E0410B43C2F88830B4E70020EE
:102F10006CE600BF00380240704700000268D368CA
:102F200043F00103D36002689168064B0B40062B07
:102F300018BFB3F5803F03D0136843F0010313605B
:102F400000207047070001007047704770477047C6
:102F500010B5044603681A6912F0020F11D0DA683E
:102F600012F0020F0DD06FF002021A6101230377F5
:102F700003689B6913F0030F79D0FFF7E6FF002386
:102F8000237723681A6912F0040F12D0DA6812F05E
:102F9000040F0ED06FF004021A6102232377236816
:102FA0009B6913F4407F68D02046FFF7CEFF0023D3
:102FB000237723681A6912F0080F12D0DA6812F02A
:102FC000080F0ED06FF008021A61042323772368DC
:102FD000DB6913F0030F57D02046FFF7B6FF00233D
:102FE000237723681A6912F0100F12D0DA6812F0F2
:102FF000100F0ED06FF010021A6108232377236898
:10300000DB6913F4407F46D02046FFF79EFF002384
:10301000237723681A6912F0010F03D0DA6812F0DF
:10302000010F3FD123681A6912F0800F03D0DA68CC
:1030300012F0800F3DD123681A6912F4807F03D00B
:10304000DA6812F0800F3BD123681A6912F0400F42
:1030500003D0DA6812F0400F39D123681A6912F0F0
:10306000200F03D0DA6812F0200F37D110BDFFF720
:103070006BFF2046FFF76AFF81E72046FFF764FFFA
:103080002046FFF763FF92E72046FFF75DFF2046EB
:10309000FFF75CFFA3E72046FFF756FF2046FFF748
:1030A00055FFB4E76FF001021A61204606F0FEFFFB
:1030B000B8E76FF080021A61204600F0B7F8BAE76F
:1030C0006FF480721A61204600F0B1F8BCE76FF02F
:1030D00040021A612046FFF73AFFBEE76FF0200278
:1030E0001A61204600F0A1F8C0E7000070B4036840
:1030F0003A4CA04214BF00240124B0F1804F14BF09
:10310000224644F00102AAB9354DA84214BF002559
:103110000125344EB0420DD065B905F1804505F565
:103120008235A84214BF0025012506F50066B0428D
:1031300000D01DB123F070034D682B43002A33D11A
:10314000274A904214BF00220122264DA8422BD0CC
:1031500052BB02F1804202F58232904214BF00223B
:10316000012205F50065A8421ED0EAB91E4A904228
:1031700014BF0022012205F59A35A84214D09AB94D
:103180001A4A904214BF0022012205F50065A842A8
:103190000AD04AB9164A904214BF00220122A5F56E
:1031A0009635A84200D01AB123F44073CA6813437D
:1031B00023F080034A69134303608A68C2620A6885
:1031C00082620C4B984214BF234644F001030BB1BA
:1031D0000B6903630123436170BC70470000014029
:1031E0000008004000040040004401400018004076
:1031F0000020004000040140A8B110B5044690F83A
:103200003D305BB1022384F83D30211D2068FFF77B
:103210006DFF012384F83D30002010BD80F83C3064
:10322000FFF77AFEEEE7012070477047704770475E
:1032300010B5044683680269134342691343C269A7
:10324000134301680868994A024013430B602268DF
:10325000536823F44053E1680B435360A269236A27
:103260001A4321688B6823F4306313438B6023680F
:103270008F4A934218D08F4A934228D08E4A934265
:103280003DD08E4A934250D08D4A934262D08D4AAF
:10329000934277D08C4A934200F08C808B4A9342C1
:1032A00000F0A0801023B6E0894BD3F8903003F0F3
:1032B0000303032B09D8DFE803F00204AD06012362
:1032C000A9E00423A7E00823A5E01023A3E0804B96
:1032D000D3F8903003F00C030C2B0ED8DFE803F08A
:1032E000070D0D0D090D0D0DA90D0D0D0B00002382
:1032F00091E004238FE008238DE010238BE0744BD2
:10330000D3F8903003F03003102B0AD006D9202BCD
:1033100000F09180302B06D108237CE01BB90023FC
:1033200079E0042377E0102375E0694BD3F89030FF
:1033300003F0C003402B09D005D9802B7DD0C02BD2
:1033400006D1082367E01BB9002364E0042362E090
:10335000102360E05E4BD3F8903003F44073B3F574
:10336000807F0BD007D9B3F5007F68D0B3F5407FDD
:1033700006D108234FE01BB900234CE004234AE0A8
:10338000102348E0524BD3F8903003F44063B3F578
:10339000806F0BD007D9B3F5006F52D0B3F5406FF3
:1033A00006D1082337E01BB9012334E0042332E0BF
:1033B000102330E0464BD3F8903003F44053B3F57C
:1033C000805F0BD007D9B3F5005F3CD0B3F5405F09
:1033D00006D108231FE01BB900231CE004231AE0D8
:1033E000102318E03A4BD3F8903003F44043B3F580
:1033F000804F0BD007D9B3F5004F26D0B3F5404F1F
:1034000006D1082307E01BB9002304E0042302E0EF
:10341000102300E00223E269B2F5004F17D0082B19
:1034200000F2B380DFE803F0768B95B19EB1B1B1C5
:10343000A8000223EFE70223EDE70223EBE70223D4
:10344000E9E70223E7E70223E5E70223E3E7082BA6
:103450005DD8DFE803F0051F3F5C485C5C5C53000F
:10346000FFF71AFA6268530803EB4003B3FBF2F369
:103470009BB20020A3F110014FF6EF72914200F2CF
:1034800087809AB222F00F02C3F3420313432268EB
:10349000D36050E0FFF710FA6268530803EB400373
:1034A000B3FBF2F39BB20020E4E700BFF369FFEF48
:1034B000001001400044004000480040004C004023
:1034C000005000400014014000780040007C0040A3
:1034D000003802406268304B03EB5203B3FBF2F357
:1034E0009BB20020C6E7FFF7B3F86268530803EB0E
:1034F0004003B3FBF2F39BB20020BBE762685308C2
:1035000003F58033B3FBF2F39BB20020B2E7012056
:103510000023AFE7FFF7C0F9626800EB5203B3FB8B
:10352000F2F39BB20020A3F110014FF6EF7291422B
:1035300030D82268D36000232366636610BDFFF78E
:10354000BBF9626800EB5203B3FBF2F39BB20020BD
:10355000E9E76268114B03EB5203B3FBF2F39BB252
:103560000020E0E7FFF774F8626800EB5203B3FB5A
:10357000F2F39BB20020D6E76268530803F50043DC
:10358000B3FBF2F39BB20020CDE701200023CAE792
:103590000120D0E70120CEE70048E8010024F40034
:1035A000436A13F0010F06D00268536823F4003316
:1035B000816A0B435360436A13F0020F06D002681E
:1035C000536823F48033C16A0B435360436A13F09A
:1035D000040F06D00268536823F48023016B0B4369
:1035E0005360436A13F0080F06D00268536823F44F
:1035F0000043416B0B435360436A13F0100F06D036
:103600000268936823F48053816B0B439360436A91
:1036100013F0200F06D00268936823F40053C16BA7
:103620000B439360436A13F0400F0AD0026853685B
:1036300023F48013016C0B435360036CB3F5801FBC
:103640000BD0436A13F0800F06D00268536823F44E
:103650000023816C0B43536070470268536823F466
:10366000C003416C0B435360EBE72DE9F041054685
:103670000F4616469846069C2B68DB6937EA03031B
:103680000CBF01230023B3421CD1B4F1FF3FF3D0A0
:10369000FDF75CFFA0EB0800A04201D8002CEBD1A5
:1036A0002A68136823F4D07313602A68936823F0A0
:1036B0000103936020236B67AB67002385F87030AC
:1036C000032000E00020BDE8F0812DE9F04182B048
:1036D0001E46436F202B59D104460D469046B2FA40
:1036E00082F35B09002908BF0123002B53D190F816
:1036F0007030012B51D0012380F870300023C36754
:1037000021234367FDF722FF0746A4F85080A4F861
:103710005280A368B3F5805F02D04FF0000810E03C
:1037200023690BB34FF000080BE038F8023B226826
:10373000C3F308039362B4F85230013B9BB2A4F880
:103740005230B4F852309BB28BB100963B46002207
:1037500080212046FFF789FF08BB002DE5D015F832
:10376000012B23689A62E6E7A8460025E9E7009660
:103770003B46002240212046FFF777FF034680B9F1
:1037800020226267002284F8702000E0022318469D
:1037900002B0BDE8F0810123F9E70223F7E7032334
:1037A000F5E70323F3E710B582B004460023C367AF
:1037B000FDF7CCFE2268126812F0080F07D1202313
:1037C0006367A367002084F8700002B010BD6FF03B
:1037D0007E430093034600224FF400112046FFF77A
:1037E00044FF0028EBD00320EFE768B310B5044690
:1037F000436F03B3242363672268136823F0010334
:1038000013602046FFF714FD012813D0636ABBB98B
:103810002268536823F4904353602268936823F02E
:103820002A0393602268136843F001031360204663
:10383000FFF7B9FF10BD80F8703007F053F9D9E7F2
:103840002046FFF7ADFEE3E7012070470023013378
:103850000C4A934211D80269002AF8DA036943F04E
:103860000103036100230133064A934207D802692A
:1038700012F0010FF7D1002070470320704703209A
:10388000704700BF400D030084B010B5044603A884
:1038900080E80E00089B012B1DD1A36B23F480331D
:1038A000A363E268164B1340E360E36823F440131C
:1038B000E3600F9B012B09D02046FFF7C7FF069B53
:1038C000012B14D0BDE8104004B07047E36843F406
:1038D0008013E360F0E7E36843F04003E3602046D1
:1038E000FFF7B4FFA36B43F48033A363E7E7A36858
:1038F00043F00603A360A36843F02003A360E1E75D
:10390000BFFFBDFF836823F0010383600020704781
:1039100008B5C36823F0C043C360012909D069B961
:10392000C36843F08043C3603220FDF715FE0020DA
:1039300008BDC36843F00053C360F5E70120F7E713
:10394000890141F02001016100230133054A9342BE
:1039500005D8026912F0200FF7D10020704703202C
:10396000704700BF400D03001023036100230133A3
:10397000054A934205D8026912F0100FF7D10020D2
:1039800070470320704700BF400D0300D0F8003897
:103990001943C0F8001800207047000084B02DE9DA
:1039A000F041044607A880E80E002546002306E003
:1039B00003F1400204EB82020021516001330E2B1F
:1039C000F6D9119B03BBA36B23F40013A3632368F5
:1039D00043F040032360236843F080032360002307
:1039E000C4F8003E04F50066D4F80038C4F8003886
:1039F0000C9B012B0DD0032B1CD1099BABB90021D3
:103A00002046FFF7C3FF19E0A36B43F40013A36341
:103A1000E5E7099B23B900212046FFF7B7FF0DE03A
:103A200001212046FFF7B2FF08E001212046FFF701
:103A3000ADFF03E003212046FFF7A8FF1021204639
:103A4000FFF77EFF804608B14FF001082046FFF7E0
:103A50008BFF08B14FF00108002333617361F361FC
:103A60000AE0C3B94FF00060C2F8000900220A6101
:103A70004FF67F328A6001330799994210D905EBDE
:103A8000431202F51061D2F800090028E9DB00209A
:103A9000C2F80009EAE74FF09040C2F80009E5E7F4
:103AA00000230AE0BBB14FF09047C2F8007B002230
:103AB00002614FF67F3282600133994210D905EBE3
:103AC000431202F53060D2F8007B002FEADB0027BA
:103AD000C2F8007BEBE74FF00067C2F8007BE6E737
:103AE000336923F4807333610A9B012B1BD00022BE
:103AF000A2616FF0804262611BB9A36943F01003B9
:103B0000A361A2690E4B1343A3610D9B1BB1A36973
:103B100043F00803A361119B012B0BD04046BDE885
:103B2000F04104B07047074A3263316B064A0A43DA
:103B30003263DCE7A269054B1343A361EEE700BFE4
:103B400000383C80000180000300010004000040B8
:103B500008B5D0F8043843F00203C0F80438032055
:103B6000FDF7FAFC002008BD842801D0033070471F
:103B700000207047EFF30580003018BF0120704728
:103B800008B501F077F8002008BD08B5FFF7F2FF8F
:103B900010B901F0B7F808BD01F0BAF8FBE7F0B5CD
:103BA00085B00F46446805680669B0F90800FFF75C
:103BB000DBFF03AB019300903B46B2B2294620469F
:103BC00001F026F8012802D1039805B0F0BD0020CD
:103BD000FBE708B5012000F0C5FB08BD30B583B098
:103BE0000023019350B30C460546B1F1FF3F02D0CC
:103BF00019B91C4601E04FF0FF34FFF7BBFF90B14D
:103C000001AA0021284600F00FFE012818D1019BCF
:103C1000C3B10D4B4FF080521A60BFF34F8FBFF30B
:103C20006F8F002006E02146284600F027FD01287E
:103C300002D1002003B030BDFF20FBE78020F9E770
:103C4000FF20F7E70020F5E704ED00E010B582B0B3
:103C5000044600230193FFF78DFF88B101A9204698
:103C600000F0F9FB012816D1019BB3B10D4B4FF0C9
:103C700080521A60BFF34F8FBFF36F8F002008E0B0
:103C800000231A461946204600F09AFA012806D168
:103C9000002002B010BDFF20FBE70020F9E7FF2065
:103CA000F7E700BF04ED00E010B50446FFF762FF40
:103CB00020B9204600F02AFE002010BD8220FCE73B
:103CC00010B501290DD103220021012000F051FA85
:103CD000044620B100231A46194600F071FA204626
:103CE00010BD0024FBE7000030B583B00023019332
:103CF00050B30C460546B1F1FF3F02D019B91C463E
:103D000001E04FF0FF34FFF735FF90B101AA002129
:103D1000284600F089FD012818D1019BC3B10D4B45
:103D20004FF080521A60BFF34F8FBFF36F8F0020A8
:103D300006E02146284600F0A1FC012802D100201F
:103D400003B030BDFF20FBE78020F9E7FF20F7E755
:103D50000020F5E704ED00E010B582B00446002332
:103D60000193FFF707FF88B101A9204600F073FB1C
:103D7000012816D1019BB3B10D4B4FF080521A6050
:103D8000BFF34F8FBFF36F8F002008E000231A4668
:103D90001946204600F014FA012806D1002002B08E
:103DA00010BDFF20FBE70020F9E7FF20F7E700BF89
:103DB00004ED00E010B50446FFF7DCFE20B9204614
:103DC00000F0A4FD002010BD8220FCE708B5002211
:103DD0004168006800F0CDF908BD000030B585B03D
:103DE0000446019100230393154602B90125FFF70C
:103DF000C1FE98B1002303AA01A9204600F0BDFA34
:103E0000012818D1039BC3B10D4B4FF080521A60AB
:103E1000BFF34F8FBFF36F8F002008E000232A46C7
:103E200001A9204600F0CCF9012802D1002005B0FC
:103E300030BDFF20FBE7FF20F9E70020F7E700BFD8
:103E400004ED00E070B584B00446029100230193B4
:103E500049B10D46164600230393B2F1FF3F0BD044
:103E600062B91E460AE004AB802243F8102D93E8A5
:103E7000070084E807002AE04FF0FF36FFF77AFEDC
:103E8000B0B103AA01A9284600F0CEFC01280CD04D
:103E900000230093039BABB1114B4FF080521A608B
:103EA000BFF34F8FBFF36F8F0CE010230093F1E748
:103EB000324601A9284600F02FFB01280AD066B936
:103EC000002300936B4693E8070084E80700204630
:103ED00004B070BD10230093F4E74023F1E700BF66
:103EE00004ED00E000F1080343604FF0FF32826010
:103EF000C3600361002303607047002303617047C0
:103F000043684B609A688A609A685160996008615A
:103F1000036801330360704730B40D68B5F1FF3FAB
:103F200002D000F1080202E0026904E01A46536878
:103F30001C68AC42FAD953684B6099608A60516042
:103F4000086103680133036030BC7047036942684D
:103F5000816891608268416851605A68824206D0E7
:103F6000002202611A68013A1A6018687047826874
:103F70005A60F5E7436A23B1036B1868C0F1070084
:103F800070470020704710B5044601F0ABFAA26BF1
:103F9000E36B9A4204D0002401F0CAFA204610BD17
:103FA0000124F9E710B5044601F09CFAA36B23B194
:103FB000002401F0BDFA204610BD0124F9E770B5D8
:103FC00004461646856B026C5AB903681BB1002083
:103FD0000135A56370BD406801F042F900236360BC
:103FE000F6E76EB980680BF04EFA226CA3681344B2
:103FF000A3606268934219D32368A3600020E7E7B7
:10400000C0680BF040FA226C5242E3681344E3604C
:1040100021688B4202D263681A44E260022E01D00A
:104020000020D5E725B1013D0020D1E70020CFE7F2
:104030000020CDE7026C72B110B5C3681344C360B1
:104040004468A34201D30368C3600C46C16820469C
:104050000BF019FA10BD704738B5054601F042FA69
:1040600095F8454064B203E001F072F8013C64B297
:10407000002C08DD6B6A33B105F1240000F0D6FF97
:104080000028F3D0F0E7FF2385F8453001F050FA1F
:1040900001F028FA95F8444064B203E001F058F8C2
:1040A000013C64B2002C08DD2B6933B105F110002E
:1040B00000F0BCFF0028F3D0F0E7FF2385F8443080
:1040C00001F036FA38BD000038B550B94FF0500352
:1040D00072B683F31188BFF36F8FBFF34F8F62B651
:1040E000FEE704460D4601F0FDF92168E26B236C02
:1040F00003FB021060600020A063A160013A02FB94
:104100000313E360FF2384F8443084F84530A5B9F5
:1041100023691BB901F00CFA012038BD04F110002D
:1041200000F084FF0028F5D0084B4FF080521A6051
:10413000BFF34F8FBFF36F8FECE704F11000FFF771
:10414000D1FE04F12400FFF7CDFEE3E704ED00E02B
:1041500038B51D46049C0B4649B12260E0632364D8
:1041600001212046FFF7B0FF84F84C5038BD246091
:10417000F4E750B94FF0500372B683F31188BFF3E0
:104180006F8FBFF34F8F62B6FEE7F0B583B0054681
:1041900011B101FB00F000E0002017460C46503042
:1041A00001F02AFB064638B100903B4600F1500270
:1041B00021462846FFF7CCFF304603B0F0BD000093
:1041C000F0B585B0019270B10446B9B9026CAAB1DC
:1041D0004FF0500372B683F31188BFF36F8FBFF3B4
:1041E0004F8F62B6FEE74FF0500372B683F311882B
:1041F000BFF36F8FBFF34F8F62B6FEE7022B0DD177
:10420000E26B012A0AD04FF0500372B683F3118893
:10421000BFF36F8FBFF34F8F62B6FEE71E460F46A8
:1042200000F0ACFF60B9019B63B14FF0500372B670
:1042300083F31188BFF36F8FBFF34F8F62B6FEE732
:1042400000253AE0002538E0324639462046FFF79F
:10425000B6FE636A4BB9A8B13B4B4FF080521A606F
:10426000BFF34F8FBFF36F8F0CE004F1240000F019
:10427000DDFE38B1344B4FF080521A60BFF34F8FE0
:10428000BFF36F8F01F054F9012005B0F0BD01F0CC
:104290004FF90020F9E702A800F00CFF012519E012
:1042A000002384F8443021E0002384F8453023E0E3
:1042B0002046FFF7D1FE00F0BDFD01F013F9A26B1F
:1042C000E36B9A42C0D3022EBED0019B002BDED0FE
:1042D000002DE0D001F02CF900F00AFD01F002F908
:1042E00094F844305BB2B3F1FF3FD9D094F8453035
:1042F0005BB2B3F1FF3FD7D001F01AF901A902A8D0
:1043000000F0E2FEC8B92046FFF73DFE0028CFD0FE
:10431000019904F1100000F06DFE2046FFF79CFEAD
:1043200000F088FD0028C8D1074B4FF080521A607A
:10433000BFF34F8FBFF36F8FBFE72046FFF78CFEB1
:1043400000F078FD0020A0E704ED00E048B108B5DA
:10435000002141600160C1600B460A46FFF730FF53
:1043600008BD704710B5024600210120FFF701FF8C
:104370000446FFF7EBFF204610BD2DE9F84370B16E
:104380000446B9B9006CA8B14FF0500372B683F37C
:104390001188BFF36F8FBFF34F8F62B6FEE74FF008
:1043A000500372B683F31188BFF36F8FBFF34F8F43
:1043B00062B6FEE7022B0DD1E06B01280AD04FF068
:1043C000500372B683F31188BFF36F8FBFF34F8F23
:1043D00062B6FEE71F469046894601F08BF9EFF37F
:1043E00011864FF0500372B683F31188BFF36F8FBD
:1043F000BFF34F8F62B6A26BE36B9A4203D3022FD7
:1044000001D000200FE094F845506DB23A4649467D
:104410002046FFF7D4FDB5F1FF3F08D06B1C5BB21F
:1044200084F84530012086F31188BDE8F883636A7B
:104430005BB104F1240000F0F9FD40B1B8F1000FC8
:1044400007D00120C8F80000EDE70120EBE70120CC
:10445000E9E70120E7E770B170B50446036CABB142
:104460004FF0500372B683F31188BFF36F8FBFF321
:104470004F8F62B6FEE74FF0500372B683F3118898
:10448000BFF36F8FBFF34F8F62B6FEE703683BB396
:104490000E4601F02FF9EFF311854FF0500372B67D
:1044A00083F31188BFF36F8FBFF34F8F62B6A26B98
:1044B000E36B934228D994F845305BB20132A26392
:1044C000B3F1FF3F1AD1636A03B304F1240000F093
:1044D000ADFDE8B1F6B10120306085F3118870BD03
:1044E0004368002BD4D04FF0500372B683F3118889
:1044F000BFF36F8FBFF34F8F62B6FEE701335BB23E
:1045000084F845300120E8E70020E6E70120E4E7F1
:104510000120E2E70120E0E7F0B585B0019270B13B
:104520000446B9B9036CABB14FF0500372B683F3D4
:104530001188BFF36F8FBFF34F8F62B6FEE74FF066
:10454000500372B683F31188BFF36F8FBFF34F8FA1
:1045500062B6FEE70F4600F011FE60B9019B63B141
:104560004FF0500372B683F31188BFF36F8FBFF320
:104570004F8F62B6FEE700263EE000263CE039465B
:104580002046FFF757FD013DA563236923B900F0DD
:10459000CFFF012005B0F0BD04F1100000F046FD92
:1045A0000028F4D0344B4FF080521A60BFF34F8F85
:1045B000BFF36F8FEBE700F0BBFF0020EAE702A834
:1045C00000F078FD012621E0002384F8443029E042
:1045D000002384F845302BE02046FFF73DFD00F036
:1045E00029FC09E02046FFF737FD00F023FC2046B8
:1045F000FFF7D8FC00283DD100F074FFA56B002D1B
:10460000BDD1019B002BD6D0002ED8D000F090FF5A
:1046100000F06EFB00F066FF94F844305BB2B3F13B
:10462000FF3FD1D094F845305BB2B3F1FF3FCFD01C
:1046300000F07EFF01A902A800F046FD0028D1D1BC
:104640002046FFF7AFFC0028C6D0019904F12400F2
:1046500000F0D0FC2046FFF7FFFC00F0EBFB002849
:10466000CAD1054B4FF080521A60BFF34F8FBFF392
:104670006F8FC1E700208DE704ED00E070B584B0D6
:10468000019150B94FF0500372B683F31188BFF314
:104690006F8FBFF34F8F62B6FEE70446036C53B1D2
:1046A0004FF0500372B683F31188BFF36F8FBFF3DF
:1046B0004F8F62B6FEE700F061FD60B9019B6BB100
:1046C0004FF0500372B683F31188BFF36F8FBFF3BF
:1046D0004F8F62B6FEE700252E4653E000252E469A
:1046E00050E0013BA363236813B900F07BFE6060D8
:1046F000236963B104F1100000F098FC38B1494B14
:104700004FF080521A60BFF34F8FBFF36F8F00F0EE
:104710000FFF0125284604B070BD55B14FF050037E
:1047200072B683F31188BFF36F8FBFF34F8F62B6FA
:10473000FEE700F0FDFEEDE702A800F0BBFC01265D
:104740002AE0002384F8443032E0002384F8453026
:1047500034E000F0C7FE606800F020FD054600F080
:10476000E7FE3BE02046FFF777FC00F063FB09E043
:104770002046FFF771FC00F05DFB2046FFF712FCBE
:10478000002840D100F0AEFEA36B002BA9D1019B05
:10479000002BC2D0002ECFD000F0CAFE00F0A8FA45
:1047A00000F0A0FE94F844305BB2B3F1FF3FC8D0F4
:1047B00094F845305BB2B3F1FF3FC6D000F0B8FECD
:1047C00001A902A800F080FC0028D1D12046FFF703
:1047D000E9FB0028C6D02368002BBAD0019904F168
:1047E000240000F007FC2046FFF736FC00F022FB17
:1047F0000028C7D10B4B4FF080521A60BFF34F8F88
:10480000BFF36F8FBEE7002D84D000F06BFE204613
:10481000FFF7B0FB0146606800F07EFD00F088FE07
:10482000002577E704ED00E02DE9F84370B1044678
:10483000B9B9036CABB14FF0500372B683F3118872
:10484000BFF36F8FBFF34F8F62B6FEE74FF0500399
:1048500072B683F31188BFF36F8FBFF34F8F62B6C9
:10486000FEE71746894600F045FFEFF311864FF04B
:10487000500372B683F31188BFF36F8FBFF34F8F6E
:1048800062B6D4F83880B8F1000F1DD094F84450C7
:104890006DB249462046FFF7CDFB08F1FF33A36315
:1048A000B5F1FF3F05D06B1C5BB284F844300120AA
:1048B0000BE023696BB104F1100000F0B7FB50B1BD
:1048C0005FB10120386000E0002086F31188BDE868
:1048D000F8830120F9E70120F7E70120F5E7000060
:1048E0000023072B0FD8084A02EBC302526882420A
:1048F00001D00133F5E7044A002142F8331002EBFE
:10490000C303596070477047EC59002050B94FF00D
:10491000500372B683F31188BFF36F8FBFF34F8FCD
:1049200062B6FEE710B50446FFF7DAFF204600F056
:10493000EFFF10BD002301E0013001330278A52A0A
:10494000FAD0C3F38F007047074B9B6A1B6833B1E3
:10495000054B9A6AD268D2685268DA627047024B95
:104960004FF0FF32DA6270479C00002010B5044619
:10497000006B00F0CDFF204600F0CAFF10BD2DE90E
:10498000F84F81460D4693469A460A9EDDF82C80E4
:104990000C9C9200A521206B0AF080FD276B6FF024
:1049A00040435B4407EB830727F0070700230F2BE7
:1049B00007D8E95CE21882F83410EA5C0AB10133E6
:1049C000F5E7002384F84330062E00D90626E66278
:1049D000E66400252565201DFFF78FFA04F1180015
:1049E000FFF78BFA2461C6F10706A661646265656C
:1049F00084F8585052464946384600F045FD20603C
:104A0000B8F1000F01D0C8F80040BDE8F88F0000F1
:104A100070B5002407E004EB8402930010481844AA
:104A2000FFF760FA0134062CF5D90E4C04F1BC06F0
:104A30003046FFF757FA04F1D0052846FFF752FA3F
:104A400004F11400FFF74EFA04F1E400FFF74AFA0C
:104A50002046FFF747FAA662C4F8F85070BD00BFC1
:104A6000CC0000209C00002038B5054600F03AFD3F
:104A7000264BD3F8FC200132C3F8FC20D3F80031D8
:104A800073B1224BD3F804318BB9204BD3F80031EA
:104A9000DA6AEB6A9A420AD81C4BC3F8005106E066
:104AA0001A4BC3F80051D3F8FC30012B2BD0174C14
:104AB000D4F808310133C4F808316B64EB6A012281
:104AC0009A40D4F80C110A43C4F80C2104F13000C8
:104AD00003EB83039A00291D1044FFF711FA00F03D
:104AE00027FDD4F804316BB1D4F80031DA6AEB6AEF
:104AF0009A4207D2064B4FF080521A60BFF34F8F95
:104B0000BFF36F8F38BDFFF783FFD0E79C00002015
:104B100004ED00E038B517E000F0E4FC0D4CD4F8EB
:104B2000F030DD68281DFFF711FAD4F8FC30013BA6
:104B3000C4F8FC30D4F81031013BC4F8103100F057
:104B4000F7FC2846FFF712FF024BD3F81031002B79
:104B5000E2D138BD9C00002008B5FFF7DBFF064B13
:104B60001B6B012BF9D9054B4FF080521A60BFF334
:104B70004F8FBFF36F8FF0E79C00002004ED00E043
:104B800070B504460E46214BD3F81451D3F80001FA
:104B90000430FFF7DBF960B91C4BD3F80021D16A70
:104BA000012202FA01F1D3F80C2122EA0102C3F832
:104BB0000C21B4F1FF3F14BF00230123002E08BFD6
:104BC000002393B92C44114BD3F800315C60A5420B
:104BD00012D80E4DA86AD5F800110431FFF79CF9E0
:104BE000EB6AA34210D9EC620EE00848D0F800113D
:104BF0000431FFF785F907E0044BD3F8F800D3F848
:104C000000110431FFF788F970BD00BF9C0000203F
:104C10002DE9F04385B00746884615469946900031
:104C200000F0EAFDF8B106465C2000F0E5FD044620
:104C3000A8B10663D4B10023039302940D9B0193A2
:104C40000C9B00934B462A4641463846FFF797FE99
:104C50002046FFF709FF012005B0BDE8F08330468C
:104C600000F056FEE6E74FF0FF30F5E74FF0FF307B
:104C7000F2E7000000B583B0194B019300230093C5
:104C8000802218491848FFF7C3FF012805D0B0F16A
:104C9000FF3F19D003B05DF804FB4FF0500372B62C
:104CA00083F31188BFF36F8FBFF34F8F62B60F4B43
:104CB0004FF0FF32DA620122C3F804210022C3F868
:104CC000142100F0B3FCE5E74FF0500372B683F314
:104CD0001188BFF36F8FBFF34F8F62B6FEE700BF3F
:104CE000B80100209C090108594B00089C000020D5
:104CF000034AD2F818310133C2F81831704700BFA7
:104D00009C000020014BD3F8140170479C00002048
:104D100008B500F0EFFC024BD3F8140108BD00BF4A
:104D20009C0000202DE9F041414BD3F81831002BB5
:104D30006ED13F4BD3F814510135C3F81451DDB98E
:104D40009B6A1B6853B14FF0500372B683F311880E
:104D5000BFF36F8FBFF34F8F62B6FEE7344B9A6A93
:104D6000D3F8F8109962C3F8F820D3F82021013263
:104D7000C3F82021FFF7E8FD2D4BDB6AAB423DD99C
:104D800000242B4AD2F80031DB6A03EB830399003D
:104D90000A44136B012B42D9012440E00124244B27
:104DA0009B6A1B6863B3224B9B6ADB68DE6873688F
:104DB0009D422AD306F104084046FFF7C7F8B36ABC
:104DC0001BB106F11800FFF7C1F8F36A01229A40FF
:104DD000174FD7F80C110A43C7F80C2107F1300020
:104DE00003EB83039A0041461044FFF789F8F26A07
:104DF000D7F80031DB6A9A42D0D2D0E70024CEE760
:104E00000B4B4FF0FF32DA62BBE7094AD362B8E7D7
:104E1000074AD2F824310133C2F824310024044B6C
:104E2000D3F8283103B101242046BDE8F08100BF4A
:104E30009C0000203A4BD3F8183153B94FF050037F
:104E400072B683F31188BFF36F8FBFF34F8F62B6D3
:104E5000FEE770B500F046FB314BD3F81821013A5C
:104E6000C3F81821D3F81831002B54D12C4BD3F8A8
:104E7000FC3023B9002400F05BFB204670BD002409
:104E8000274B5B692BB3264D2B6ADC6804F11800B5
:104E9000FFF75CF8261D3046FFF758F8E36A012259
:104EA0009A40D5F80C110A43C5F80C2105F13000E1
:104EB00003EB83039A0031461044FFF721F8E26ABE
:104EC000D5F80031DB6A9A42DAD30122C5F82821ED
:104ED000D6E70CB1FFF738FD114BD3F8244164B18C
:104EE000FFF720FF18B10E4B0122C3F82821013C27
:104EF000F6D10B4B0022C3F82421094BD3F82831FB
:104F00005BB1084B4FF080521A60BFF34F8FBFF375
:104F10006F8F0124AFE70024ADE70024ABE700BFAB
:104F20009C00002004ED00E0314BD3F8183123B190
:104F30002F4B0122C3F82821704710B52C4B0022BB
:104F4000C3F82821D3F800311B6B1A68B2F1A53FD2
:104F500003D15A68B2F1A53F20D0254BD3F8000108
:104F6000D3F80011343104F09DFF214AD2F80C31FE
:104F7000B3FA83F3DBB2C3F11F0303EB83008100B9
:104F80000A44126B9AB94FF0500372B683F311883A
:104F9000BFF36F8FBFF34F8F62B6FEE79A68B2F12F
:104FA000A53FDAD1DB68B3F1A53FD6D1DDE7104AE2
:104FB0009900CC18A0001044446B646844633032FC
:104FC0001944880008300244944209D0084903EB90
:104FD00083039A000A44536BDB68C1F8003110BDAB
:104FE00061680348142202FB03025163EEE700BF2D
:104FF0009C00002050B94FF0500372B683F3118823
:10500000BFF36F8FBFF34F8F62B6FEE710B50C464C
:10501000054BD3F800111831FEF77EFF0121204621
:10502000FFF7AEFD10BD00BF9C00002038B5C3687F
:10503000DC6854B94FF0500372B683F31188BFF3A4
:105040006F8FBFF34F8F62B6FEE704F11805284655
:10505000FEF77CFF154BD3F8183103BB251D2846FE
:10506000FEF774FFE36A01219940104AD2F80C015F
:105070000143C2F80C11303203EB83039800294638
:105080001044FEF73DFFE26A084BD3F80031DB6ABB
:105090009A4209D90120054BC3F8280138BD294699
:1050A0000348FEF72DFFEEE70020F7E79C00002005
:1050B000B0000020034BD3F820210260D3F8143154
:1050C000436070479C000020F8B560B10546A9B95F
:1050D0004FF0500372B683F31188BFF36F8FBFF3A5
:1050E0004F8F62B6FEE74FF0500372B683F311881C
:1050F000BFF36F8FBFF34F8F62B6FEE70C4600F031
:10510000F1F9124BD3F8141168680A1A2368B3F145
:10511000FF3F17D02F680D4ED6F82061B74201D05F
:10512000884211D9934203D800232360012405E06B
:105130009B1A23602846FFF7BDFF002400F0F8F912
:105140002046F8BD0024F9E70124F7E79C00002081
:10515000024B0122C3F82821704700BF9C000020A9
:1051600008B5034618B1186BFFF7E4FB08BD024B06
:10517000D3F80031F7E700BF9C000020064BD3F8BE
:1051800004313BB1044BD3F818310BB10020704708
:1051900002207047012070479C000020002859D051
:1051A00038B50446C26A2C49D1F80011C96A8A424E
:1051B00045D28169002906DB2749D1F80011C96A67
:1051C000C1F107018161606902EB82029100234A0B
:1051D0000A44904206D0204AD2F80021D26AE26204
:1051E000012038BD251D2846FEF7B0FE80B9E26AD1
:1051F00002EB82039900184B0B441B6B43B901234C
:1052000093401549D1F80C2122EA0302C1F80C2180
:105210001148D0F80031DB6AE362012404FA03F29A
:10522000D0F80C110A43C0F80C21303003EB830393
:105230009A0029461044FEF763FE2046D1E7C26C6F
:10524000054BD3F80031DB6A9A4201D20120C8E74E
:105250000020C6E7002070479C000020CC00002002
:10526000002851D038B504462A4AD2F8002182429B
:105270000AD04FF0500372B683F31188BFF36F8FDB
:10528000BFF34F8F62B6FEE7026D52B94FF0500385
:1052900072B683F31188BFF36F8FBFF34F8F62B67F
:1052A000FEE7013A0265C06AE16C88422ED07ABB03
:1052B000251D2846FEF74AFE78B9E26A15491423EF
:1052C00003FB02131B6B43B9012303FA02F2D1F86B
:1052D0000C3123EA0203C1F80C31E26CE262C2F144
:1052E0000703A361012404FA02F10A4BD3F80C016D
:1052F0000143C3F80C1130332946142000FB02305F
:10530000FEF7FEFD204638BD002070470020FAE77A
:105310000020F8E79C00002000285DD038B5034647
:10532000006D50B94FF0500372B683F31188BFF38C
:105330006F8FBFF34F8F62B6FEE7DA6C8A4200D2FE
:105340000A46D96A914201D0012800D038BD2348CD
:10535000D0F8000198420AD14FF0500372B683F39F
:105360001188BFF36F8FBFF34F8F62B6FEE7DA622B
:105370009869002802DBC2F107029A615A6918484D
:10538000142404FB01018A42E0D11C461D1D28465D
:10539000FEF7DCFD78B9E26A1049142303FB02131F
:1053A0001B6B43B9012303FA02F2D1F80C3123EA53
:1053B0000203C1F80C31E06A01228240074BD3F8A6
:1053C0000C110A43C3F80C2130332946142202FB86
:1053D0000030FEF795FDB9E7704700BF9C00002044
:1053E000CC000020064BD3F800312BB1044BD3F88E
:1053F0000021136D01331365014BD3F80001704791
:105400009C00002082B0002301930F4B1B68B3F176
:10541000FF3F0AD04FF0500372B683F31188BFF3F9
:105420006F8FBFF34F8F62B6FEE74FF0500372B637
:1054300083F31188BFF36F8FBFF34F8F62B6019B69
:10544000002BFCD002B0704708000020084800681C
:10545000006880F308884FF0000080F3148862B67B
:1054600061B6BFF34F8FBFF36F8F00DF00BF000047
:1054700008ED00E0DFF80C00016841F47001016004
:105480007047000088ED00E04FF0807340F8043C66
:1054900021F0010140F8081C054B40F80C3C40F895
:1054A000202C6FF0020340F8243C4438704700BFC2
:1054B000055400080000000000000000000000008B
:1054C000074B19680868B0E8F04F80F30988BFF30C
:1054D0006F8F4FF0000080F311887047AFF30080AA
:1054E0009C0100204FF0500372B683F31188BFF384
:1054F0006F8FBFF34F8F62B60B4A1368013313608F
:10550000012B00D07047094B1B6813F0FF0FF9D037
:105510004FF0500372B683F31188BFF36F8FBFF360
:105520004F8F62B6FEE700BF0800002004ED00E0E8
:105530000A4B1B6853B94FF0500372B683F31188BE
:10554000BFF36F8FBFF34F8F62B6FEE7013B034A95
:1055500013600BB983F31188704700BF0800002067
:10556000EFF30980BFF36F8F154B1A681EF0100F11
:1055700008BF20ED108A20E9F04F10602DE90900E6
:105580004FF0500072B680F31188BFF34F8FBFF316
:105590006F8F62B6FFF7C8FC4FF0000080F31188F0
:1055A00009BC19680868B0E8F04F1EF0100F08BF7A
:1055B000B0EC108A80F30988BFF36F8F704700BF8B
:1055C0009C01002008B54FF0500372B683F3118898
:1055D000BFF36F8FBFF34F8F62B6FFF7A3FB18B116
:1055E000034B4FF080521A60002383F3118808BDEB
:1055F00004ED00E0084A0023136008490B60084BE3
:105600001B680849A1FB03139B09013B06490B607A
:1056100007231360704700BF10E000E018E000E0CF
:1056200010000020D34D621014E000E010B582B0ED
:105630002B4B1A78D2B20192FF221A701B78DBB280
:105640008DF803309DF8033003F05003254A1370A2
:105650000723536009E0234A5368013B53609DF8D8
:1056600003305B00DBB28DF803309DF8033013F09C
:10567000800FF0D11B4B5B68032B0AD04FF0500317
:1056800072B683F31188BFF36F8FBFF34F8F62B68B
:10569000FEE71B0203F4E063124A5360019BDBB296
:1056A0000F4A1370104B1A6842F470021A601A689D
:1056B00042F070421A60FFF79DFF00240B4B1C6004
:1056C000FFF7D8FE0A4A136843F040431360FFF720
:1056D000BDFEFFF729FCFFF795FE204602B010BD86
:1056E00000E400E0C801002020ED00E008000020F8
:1056F00034EF00E0EFF305830F2B11D9124A9B5CC6
:10570000DBB2124A12789A420AD94FF0500372B6AD
:1057100083F31188BFF36F8FBFF34F8F62B6FEE73D
:105720000B4B1B6803F4E063084A526893420AD9A2
:105730004FF0500372B683F31188BFF36F8FBFF33E
:105740004F8F62B6FEE77047F0E300E0C80100202B
:105750000CED00E0114A12F0070F1BD0D11D21F013
:105760000701C1F542532E3313440A460C490A601F
:10577000002048601344083B23F007038B60586007
:105780001860981A50601360C86008614FF00043B9
:105790004B61704743F2AE03E8E700BFE801002029
:1057A000D001002010B4134B1A6882421BD35968F1
:1057B0005C18844203D1406801445960184641682E
:1057C0004418A24213D10B4CA468A2420DD05268D7
:1057D000114441601A6812680260984200D0186053
:1057E0005DF8044B70471346DEE70460F5E702609E
:1057F000F3E700BFD001002070B50446FFF778FA48
:10580000424B9B68B3B1414B5B691C4215D0FFF71B
:1058100011FB002604F04EFB16F0070F73D04FF07B
:10582000500372B683F31188BFF36F8FBFF34F8FAE
:1058300062B6FEE7FFF78EFFE5E7A4B1083414F087
:10584000070F10D024F00704083404F0070353B105
:105850004FF0500372B683F31188BFF36F8FBFF31D
:105860004F8F62B6FEE734B1284B1B69A34206D3C3
:10587000264B1D6809E0FFF7DDFA0026CAE7FFF7AF
:10588000D9FA0026C6E72B4615466A68A24202D21C
:105890002A68002AF7D11D4A9268AA4216D01E68CB
:1058A00008362A681A606B681B1B102B16D928193A
:1058B00010F0070F0ED04FF0500372B683F311882B
:1058C000BFF36F8FBFF34F8F62B6FEE7FFF7B2FAF9
:1058D00000269FE743606C60FFF764FF69680B4A2E
:1058E00013695B1A1361D268934201D2074AD360ED
:1058F000064B5B690B436B6000232B60FFF79AFA42
:10590000002E89D186E7304670BD00BFD00100204F
:10591000002834D038B50446A0F1080550F8042C0E
:10592000174949690A420AD14FF0500372B683F30E
:105930001188BFF36F8FBFF34F8F62B6FEE750F849
:10594000080C50B14FF0500372B683F31188BFF3C7
:105950006F8FBFF34F8F62B6FEE722EA010244F871
:10596000042CFFF7C5F954F8041C054A13690B44CD
:1059700013612846FFF716FFFFF75CFA38BD704742
:10598000D001002000B583B0204B1B6813B11F4A23
:10599000506898471E4803F075FB0EE01D4B6922C6
:1059A0001D491E4809F082FD07E0DA6899685868C9
:1059B00090470199062000F0BBFB154C204603F0F0
:1059C00068FB01A9164801F0A3F9204603F05AFB31
:1059D000019B002BE2D01A78032A0AD0042A10D0A7
:1059E000022AE2D00B4B9B220B490C4809F05EFDCA
:1059F000E3E75A68986890470199052000F098FB02
:105A0000DBE75A6898689047D7E700BF98320020D4
:105A10002C5A0020A4090108D4090108F40901083E
:105A2000A0320020F8B507460E461546134803F08D
:105A3000BAFA88B1062000F061FB0446D0B1022317
:105A4000037047608660C56001460C4803F074FA35
:105A5000034640B91846F8BD094BB52209490A4822
:105A600009F024FDE6E72146062000F061FB4FF037
:105A7000FF33EFE74FF0FF33ECE700BFA032002029
:105A8000A40901081C0A0108F409010808B591F8E5
:105A90002F3013F0180F03D1034AFFF7C3FF08BDDF
:105AA000024AFFF7BFFFFAE749820008FD8D0008B0
:105AB00030B583B005460C4600F075F81348056014
:105AC00044600621083003F025FA70B9104803F04D
:105AD000C3FA90B9032300934FF4806300220D4969
