:020000040800F2
:100000000000082081F8000829BA0008D1F800088B
:100010002DBA000831BA000835BA00080000000007
:10002000000000000000000000000000014F000878
:1000300039BA000800000000A14F00080550000870
:10004000D1F80008D1F80008D1F80008D1F800086C
:10005000D1F80008D1F80008D1F80008D1F800085C
:10006000D1F80008D1F80008D1F80008D1F800084C
:10007000D1F80008D1F80008D1F80008D1F800083C
:10008000D1F80008D1F80008D1F80008D1F800082C
:10009000D1F80008D1F80008D1F80008D1F800081C
:1000A000D1F800083DBA0008D1F80008D1F80008DE
:1000B000D1F80008D1F80008D1F80008D1F80008FC
:1000C000D1F80008D1F80008D1F80008D1F80008EC
:1000D000D1F80008D1F80008D1F80008D1F80008DC
:1000E000D1F80008D1F80008D1F80008D1F80008CC
:1000F000D1F80008D1F80008D1F80008D1F80008BC
:10010000D1F80008D1F80008D1F80008D1F80008AB
:10011000D1F80008D1F80008D1F80008D1F800089B
:10012000D1F80008D1F80008D1F80008D1F800088B
:10013000D1F8000849BA0008D1F80008D1F8000841
:10014000D1F80008D1F80008D1F80008D1F800086B
:10015000D1F80008D1F80008D1F80008D1F800085B
:10016000D1F80008D1F80008D1F80008D1F800084B
:10017000D1F80008D1F80008D1F80008000000000C
:10018000D1F80008D1F80008D1F80008D1F800082B
:10019000D1F80008D1F80008D1F80008D1F800081B
:1001A000D1F80008D1F80008D1F80008D1F800080B
:1001B000D1F80008D1F80008D1F80008D1F80008FB
:1001C000D1F80008D1F8000800000000D1F80008BC
:1001D000D1F80008D1F80008D1F80008D1F80008DB
:1001E000D1F80008D1F80008D1F80008D1F80008CB
:0801F000D1F80008D1F8000865
:1002000010B5054C237833B9044B13B10448AFF350
:1002100000800123237010BD780000200000000042
:100220001C0C010808B5034B1BB103490348AFF38D
:10023000008008BD000000007C0000201C0C0108AC
:1002400010F8012B11F8013B012A28BF9A42F7D080
:10025000D01A7047034613F8012B002AFBD1181A55
:10026000013870470000000000000000000000009E
:1002700001F0FF01102A2BDB10F0070F08D010F857
:10028000013B013A8B422DD010F0070F42B3F6D15B
:10029000F0B441EA012141EA014122F007047FF074
:1002A00000070023F0E80256083C85EA010586EACB
:1002B000010685FA47F5A3FA87F586FA47F6A5FA07
:1002C00087F68EB9EED1F0BC01F0FF0102F0070213
:1002D00032B110F8013B013A83EA010313B1F8D1BE
:1002E0000020704701387047002D06BF354603389F
:1002F000073815F0010F07D1013015F4807F02BFD8
:10030000013015F4C03F0130F0BC0138704700BF28
:1003100053B94AB9002908BF00281CBF4FF0FF316C
:100320004FF0FF3000F072B9ADF1080C6DE904CE6A
:1003300000F006F8DDF804E0DDE9022304B07047C0
:100340002DE9F047089E04468846002B4BD18A428F
:10035000154667D9B2FA82F24AB1C2F1200701FA12
:1003600002F320FA07F7954047EA030894404FEA62
:10037000154E230CB8FBFEF71FFA85FC0EFB178801
:1003800043EA084307FB0CF1994209D9EB1807F13E
:10039000FF3080F01B81994240F21881023F2B44CC
:1003A0005B1AA4B2B3FBFEF00EFB103344EA034425
:1003B00000FB0CFCA44509D92C1900F1FF3380F097
:1003C0000781A44540F2048102382C4440EA0740EA
:1003D000A4EB0C0400271EB1D4400023C6E900435F
:1003E0003946BDE8F0878B4209D9002E00F0EB803A
:1003F0000027C6E9000138463946BDE8F087B3FA60
:1004000083F7002F47D18B4202D3824200F2FA8059
:10041000841A61EB030301209846002EE0D0C6E960
:100420000048DDE702B9FFDEB2FA82F2002A40F0AE
:100430008F80491B4FEA154E1FFA85F80127B1FB43
:10044000FEFC230C0EFB1C1143EA014308FB0CF1DC
:10045000994207D9EB180CF1FF3002D2994200F211
:10046000CD808446591AA3B2B1FBFEF00EFB1014E6
:1004700043EA044408FB00F8A04507D92C1900F111
:10048000FF3302D2A04500F2B6801846A4EB080460
:1004900040EA0C409FE7C7F1200CBB4022FA0CFE5B
:1004A0004EEA030E01FA07F420FA0CF521FA0CF3D8
:1004B0004FEA1E482543B3FBF8F92C0C08FB19330F
:1004C0001FFA8EFA44EA034309FB0AF49C4202FA3B
:1004D00007F200FA07F10BD91EEB030309F1FF3015
:1004E00080F087809C4240F28480A9F10209734425
:1004F0001B1BADB2B3FBF8F008FB103345EA034415
:1005000000FB0AFAA24508D91EEB040400F1FF33F0
:100510006BD2A24569D90238744440EA0940A0FB75
:100520000289A4EB0A044C45C2464B4654D351D031
:10053000002E69D0B1EB0A0564EB030404FA0CFC4D
:10054000FD40FC404CEA0505C6E90054002747E79A
:10055000C2F1200320FA03F7954001FA02F021FAD4
:1005600003F34FEA154E3843010CB3FBFEF71FFAB5
:1005700085F80EFB173341EA034107FB08F38B4272
:1005800004FA02F407D9691807F1FF3C2FD28B4215
:100590002DD9023F2944CB1A81B2B3FBFEF00EFBEA
:1005A000103341EA034100FB08F38B4207D9691875
:1005B00000F1FF3C17D28B4215D902382944C91AE1
:1005C00040EA07473BE73746304609E70746E7E694
:1005D0001846FBE64145ABD2B8EB020A69EB0E02C6
:1005E00001381346A4E76046E9E7184695E76746F1
:1005F000D1E781467CE702382C4447E7ACF1020C96
:100600002B442FE7384608E73746E9E6704700BF36
:1006100008B5032000F02CF800200BF0C7F90BF010
:10062000FDF8002008BD00BF034A044B11681B7889
:100630000B441360704700BFD45900200000002015
:10064000014B1868704700BFD459002038B50446E4
:10065000FFF7F6FF0546631C02D0044B1B781C44D1
:10066000FFF7EEFF401BA042FAD338BD0000002088
:1006700007490002074BCA6800F4E06010B44FF667
:10068000FF0422405DF8044B13431843C8607047D1
:1006900000ED00E00000FA05174BDB68C3F302230E
:1006A00030B4C3F107051C1D042D28BF0425062CFA
:1006B00018D9033B4FF0FF349C4022EA04044FF06A
:1006C000FF32002802FA05F221EA020101FA03F2E0
:1006D00042EA04024FEA0212D2B206DB074B1A5476
:1006E00030BC704700242346E9E700F00F00044BBC
:1006F0001A5430BC704700BF00ED00E000E400E099
:1007000014ED00E0002807DB00F01F010123400981
:10071000024A8B4042F82030704700BF00E100E001
:10072000F8B50446002964D1D0E902310B4343F403
:10073000007122680120E5691668324B002D41F2F4
:10074000180503EA06034FF0000643EA010314BF4D
:1007500031464FF480610B4313601768FFF776FF53
:100760002368412201201F605A605F68FFF76EFF17
:1007700023684FF6417101205F609E60DE609A69D8
:100780000A4042F080029A619F69FFF75FFF236889
:1007900001209F61DE61DE69FFF758FF23680120B9
:1007A0001949DE615A591140184A0A435A515E5993
:1007B000FFF74CFF23680120154A5E5103F5805373
:1007C0001A601D68FFF742FF2368A26903F5805194
:1007D000012A0D6005D141F21C010E4A585802430E
:1007E0005A5063690C4998880C4A08601B6813606A
:1007F000F8BD4FF400624FF480434FF49441C0E9D8
:10080000023296E70F8120FF233FDEF8040020022A
:100810008020C1024000010040800240448002402C
:100820002DE9F04190F84540012C7AD001250224B1
:10083000C16280F8455080F84440B3B1C5695C1E80
:100840000DB3002C55D140F2F45601EB44154FF492
:10085000801706FB04220134AA602F6002F2F452D2
:10086000A342E96005F12005F5D80568002341F2AF
:1008700010020124A9501A4680F8444080F84530FF
:100880001046BDE8F081C4B940F2F45601EB4415BE
:100890004FF4801706FB04222F6001342E682035A8
:1008A000A34245F8182C46F4400645F8141C02F201
:1008B000F45245F8206CEFD8D7E79C4217464FF426
:1008C000801E28BF1C46A0462C460D46C5F800E0F9
:1008D00001342E68AC464445AF6046F4400607F24A
:1008E000F45745F8206BCCF80C50EFD3A342CBD88B
:1008F000BBE79C4216460D464FF4801C28BF1C46A1
:10090000A64600240134AE60C5F800C02F467445E9
:1009100005F1200506F2F456FD60F3D3A34292D808
:10092000A3E702221046BDE8F08100BF2DE9F041A7
:10093000964690F84520012A47D001240222816280
:1009400080F8454080F84420B3B15D1E22D140F2CA
:10095000F45601EB45144FF0004244F2F45706FB05
:1009600005E601352260E160AB42C4E9017606F29A
:10097000F45604F12004F4D80568002341F20C0277
:100980000124A9501A4680F8444080F845301046AA
:10099000BDE8F0819D4276460C464FF0004C28BFE2
:1009A0001D4644F2F452A84600250135A660C4F85D
:1009B00000C027466260454504F1200406F2F45663
:1009C000FC60F2D3AB42C2D8D6E702221046BDE8A3
:1009D000F08100BF002800F0888090F844302DE9B5
:1009E000F04703F0FF0282B00446002B6FD0AE4AFE
:1009F0002368516CAD4803F5805341F48041516444
:100A0000526C02F480420192019A426822F4000280
:100A100042604268216A0A4342601A6842F0010259
:100A20001A60FFF70DFE054605E0FFF709FE401BC3
:100A3000B0F5FA7F50D8236803F580521268D107C9
:100A4000F3D41D6901F03AF8994B9A4A25F01C0538
:100A5000034493424BD9984B984A034493427AD823
:100A600045F00C0521680D6194F84430422B24D0E8
:100A70004222238A4FF4004084F84420DB020A69B2
:100A80009BB2486102F01C0242F0030213430B6167
:100A9000FFF7D6FD064604E023681D6915F0010541
:100AA00028D0FFF7CDFD801BB0F5803FF4D30122A5
:100AB000002384F8442084F8453020460121FFF7C4
:100AC0002FFE012084F8440002B0BDE8F08780F8D2
:100AD000452009F0D7F88AE70320002384F8440072
:100AE00084F8453002B0BDE8F0870120704745F03A
:100AF0000805B7E70127FF2084F84470FFF7A6FD3B
:100B00006368002B36D194F84430422BD5D020684E
:100B10004222238A84F84420A268DB020169E56846
:100B2000520801F01C019BB242EAD50241F00301D8
:100B300092B20B4342610361FFF782FD054603E079
:100B400023681B69DB0773D5FFF77AFD401BB0F5FF
:100B5000803FF5D3ABE75A4B5A4A0344934281D9BD
:100B6000594B5A4A0344934294BF45F0040545F05B
:100B7000100577E7FFF764FDAA4680464FF082092B
:100B800094F84430822B1ED0216884F84490238A44
:100B90000A69DB0202F01C029BB242F041021343DD
:100BA0000B61FFF74DFD064603E023681A69D20783
:100BB00039D5FFF745FD801BB0F5803FF5D384F8AC
:100BC000447084F845A0FFF73BFD41F28833A0EB69
:100BD000080098423CD86E07D2D594F84430422B96
:100BE0003FF46BAF21684222238A4FF4805084F88F
:100BF00044200A69DB02486102F01C029BB242F009
:100C0000030213430B61FFF71BFD064604E0236854
:100C10001B6913F0010327D0FFF712FD801BB0F50D
:100C2000803FF4D343E75D6984F84470ADB2CAE70E
:100C3000012340F6FF7084F84430FFF707FD20469B
:100C40000021FFF76DFD0123002084F8443049E7BF
:100C500020460121FFF764FD01220023032084F8D0
:100C6000442084F845303DE74FF001091E464FF01F
:100C7000820A84F84490FFF7E3FC804694F84430FD
:100C8000822B33D0216884F844A0238A0A69DB02CE
:100C900002F01C029BB242F0410213430B61FFF7CA
:100CA000CFFC074618E000BF003802400038014082
:100CB00000D3CEFEBFE1E40040F1E9FD3F787D01C5
:100CC00000796CFCFF596202001F0AFA7FF0FA02F9
:100CD00023681A69D00737D5FFF7B2FCC01BB0F5FF
:100CE000803FF5D384F8449084F84560FFF7A8FC72
:100CF00041F28833A0EB08009842A9D8A906BDD5D7
:100D000094F84430822B3FF4D8AE20688221238AA5
:100D100040F2C17284F844100169DB0201F01C0149
:100D20009BB20A4313430361FFF78AFC054604E0C4
:100D30002268136913F001030BD0FFF781FC401BFD
:100D4000B0F5803FF4D3B2E65D6984F84490ADB26B
:100D5000CCE75269012012F0100184F8440018BF5A
:100D60004FF40061520758BF4FF48043E160A36025
:100D700065E700BF90F84530012B65D0024602239D
:100D8000012082F8443082F84500002933D0D36A2C
:100D9000F0B41C68002C59DB40F2F450814231D988
:100DA000314DA5FB0145AD0A00FB151040B30135DF
:100DB00001F2F4512D4C002040F2F45604FB0511D1
:100DC0006F1EC1F30C011C6824F040541C60002805
:100DD00044D087425E6004D11C68596044F00054DE
:100DE0001C601C68013044F00044A8421C60DB68B1
:100DF000E9D1D36213E082F8440082F845107047CD
:100E0000012DD5D11868C1F30C01DC6840F04050C9
:100E100059601860196841F000411960D462136884
:100E200041F214015858400705D5042541F2040049
:100E300000245D501C5000230121184682F8441004
:100E400082F84530F0BC7047022070471221002321
:100E500082F8441082F84530F0BC70471C685E6030
:100E600044F080541C60BCE70BB002AC0CFAFFFFEE
:100E700090F84520012A32D0826A034601210020E1
:100E800070B4022483F845100D4683F8444011687D
:100E9000002917DB042800F1010013D01168D46881
:100EA00001F44071B1F5007F14D01668996B16F407
:100EB000407F01F1010114D1224699639C621168BF
:100EC0000029E7DA0120002283F8440083F8452056
:100ED00070BC70471A6322469D639C62EFE7022054
:100EE00070470129C3E90D2110D0196B1268012543
:100EF00088680021C2F30D429C6218640846043AD7
:100F000083F8445083F84510DA63E1E711461A6329
:100F1000ECE700BF704700BF704700BF70B50368C3
:100F200041F2140604469D5915F0400523D19A5903
:100F3000D20716D441F214054FF480325A515B594E
:100F40001B0400D470BD2046FFF7E6FF21684FF474
:100F5000004001220023485184F8442084F84530A1
:100F600070BDFFF7D7FF012223689A5184F844200F
:100F700084F84550DEE708F00DFF2368402001218A
:100F80000022985184F8441084F84520D2E700BF2D
:100F900090F84430822B33D08B0170B5044615464F
:100FA0000068822203F4F86384F84420228A43F024
:100FB00001030169D20201F01C0192B20B431343F9
:100FC0000361FFF73DFB064604E02268136913F056
:100FD00001030DD0FFF734FB801BB0F5803FF4D345
:100FE00001220023032084F8442084F8453070BD9A
:100FF00052690121184692B22A6084F8441070BDEB
:101000000220704738B590F84430422B30D0044667
:101010008B010068422591B203F4F86384F84450D0
:10102000228A43F003030569D202416105F01C05E1
:1010300092B22B4313430361FFF702FB054604E022
:1010400023681B6913F001030DD0FFF7F9FA401B69
:10105000B0F5803FF4D301220023032084F844201C
:1010600084F8453038BD0122184684F8442038BD44
:10107000022038BD90F84530012B42D0036802228F
:10108000F0B5002685B080F8442004460396012779
:101090001A6841F2180584F84570384642F0080293
:1010A0001A601B680393FFF7D1FA039A3846236846
:1010B0001A6002961A6842F004021A601B680293D2
:1010C000FFF7C4FA029A384623681A6001965A5903
:1010D00042F480125A515B590193FFF7B7FA019A13
:1010E000304623685A515A5942F400525A515A59BB
:1010F00042F002025A5184F8447084F8456005B009
:10110000F0BD0220704700BF2DE9F04FDFF82CC280
:1011100083B08E460025DFF82892D1F8008003E0E6
:101120000135102D00F0B6800123AB4008EA030121
:101130008B42F5D1DEF8044024F01007022F40F076
:10114000AC80EF0805F0070A4FF00F0BDEF8102017
:1011500000EB87074FEA8A0A3E6A0BFA0AFB02FA9B
:101160000AF24FEA450A26EA0B064FF0030B324318
:101170000BFA0AFB04F003063A626FEA0B020768F7
:1011800006FA0AF617403E4306608668C4F3001765
:1011900006EA020BDEF80C60AF4006FA0AF646EAF1
:1011A0000B068660466826EA03031F434760C6684D
:1011B000E700DEF8083002EA060203FA0AF343EA1F
:1011C0000203C360ACD5D9F8446025F0030705F0ED
:1011D00003030F2246F4804607F180479B00C9F8BD
:1011E000446007F59C37D9F8446002FA03FA06F424
:1011F00080460196484E019AB042BA6822EA0A0235
:1012000020D006F58066B0425ED0444EB04260D039
:10121000434EB04262D0434EB04264D0424EB042E0
:101220006BD0424EB0426DD0414EB04260D0414E84
:10123000B0426CD0404EB0420CBF09260A2606FAD6
:1012400003F31A43BA60E603DCF800306FEA0102E8
:1012500005F1010554BF13400B43A703CCF8003040
:10126000DCF8043054BF13400B43E602CCF80430E2
:10127000DCF8083054BF13400B43A402CCF808300C
:10128000DCF80C3054BF13400B43102DCCF80C305D
:101290007FF44AAF03B0BDE8F08F4FEA450A03225E
:1012A000D0F800B0013F04EA020602FA0AF2012F68
:1012B0006FEA020206FA0AF602EA0B0B46EA0B068E
:1012C00006603FF674AF60E7012606FA03F31A439F
:1012D000B8E7022606FA03F31A43B3E7032606FA31
:1012E00003F31A43AEE7042606FA03F31A43A9E709
:1012F000072606FA03F31A43A4E7052606FA03F3C2
:101300001A439FE7062606FA03F31A439AE70826CC
:1013100006FA03F31A4395E7000002400008024072
:10132000000C02400010024000140240001802406D
:10133000001C02400020024000240240003C01400A
:101340000038024002B9090481617047F0B58BB0E2
:10135000002800F0848090F8BD33044603F0FF02BB
:10136000002B77D00323254620686F4684F8BD33D1
:10137000261D01F031FB55F810EBAC46BCE80F0020
:101380000FC7BCE80F000FC79CE8030087E8030005
:10139000704696E80E0001F0B7FA074630B1012515
:1013A0000223284684F8BD330BB0F0BD0146206807
:1013B00001F01AFB606860B339464FF0010C3A4601
:1013C000C1EBC1034F1C04EB830383F83C10A3F86B
:1013D0004210F9B283F83DC0814283F83F201A657C
:1013E000C3E91122ECD300221146C2EBC203571C01
:1013F00004EB830383F8FC21FAB283F8FD118242E7
:1014000083F8FF11C3F80412C3F80812C3F81012CE
:10141000EBD36F46D4F800C00FCD0FC70FCD0FC769
:1014200095E8030087E80300604696E80E0001F0A7
:10143000F3FA05460028B2D10122636A84F8380025
:10144000934284F8BD230ED0206801F0E3FB2846C8
:101450000BB0F0BD80F8BC230AF060FA82E70125EA
:1014600028460BB0F0BD204600F002F8ECE700BFC4
:1014700003680121084A30B4C0F8FC130446996996
:10148000002541F0006184F8F45328469961596DB4
:101490000A4330BC5A65704703000010024A1368C3
:1014A00043F4807313607047007000401B4A1C4B6C
:1014B000116C41F0805130B5116483B0126C1C4640
:1014C00002F080520192019A1A6842F480321A6046
:1014D000FFF7B6F8054605E0FFF7B2F8401BB0F598
:1014E0007A7F17D86368DA03F6D523680C4D43F486
:1014F00000332360FFF7A4F8044605E0FFF7A0F8E7
:10150000001BB0F57A7F05D86B689B03F6D50020E9
:1015100003B030BD032003B030BD00BF003802402F
:1015200000700040002800F0348103682DE9F0418C
:10153000DD0782B0044635D5AB498A6802F00C025B
:10154000042A00F0FE808A6802F00C02082A00F0EB
:10155000F4806368B3F5803F10D0002B00F01B814E
:10156000B3F5A02FA04B1A6800F0628122F48032FC
:101570001A601A6822F480221A6004E09A4A1368FA
:1015800043F480331360FFF75BF8974D064605E0A0
:10159000FFF756F8801B642800F2EE802B689A0350
:1015A000F6D523689F0742D41A0717D56369002B25
:1015B00000F0B0808C4B5A6F1D4642F001025A6712
:1015C000FFF73EF8064605E0FFF73AF8801B0228D1
:1015D00000F2D2806B6F9B07F6D523685D076BD551
:1015E000814B1A6CD00000F1ED801A6C012542F09D
:1015F00080521A641B6C03F080530193019B7B4B58
:101600001A68D10540F1A780A368012B39D0002BBF
:1016100000F0DA80052B744B1A6F00F0118122F074
:1016200001021A671A6F22F004021A672EE06E4A4E
:10163000916811F00C0F62D0916801F00C0108293B
:101640005AD0E368002B00F0DF80674B1A681D4614
:1016500042F001021A60FEF7F3FF064605E0FEF7CE
:10166000EFFF801B022800F287802B689807F6D5D1
:101670002B68226923F0F80343EAC2032B60236836
:1016800092E7594A136F43F001031367FEF7D8FF3F
:10169000554E804641F2883705E0FEF7D1FFA0EBBA
:1016A0000800B84268D8336F9B07F6D525B14E4A7B
:1016B000136C23F080531364A369CBB14A4A916839
:1016C00001F00C01082921D0022B136800F0C08022
:1016D00023F0807314461360FEF7B2FF054604E062
:1016E000FEF7AEFF401B022846D823689B01F7D4C3
:1016F000002002B0BDE8F08152685602A1D43A4AF7
:10170000126895073CD5E268012A39D0012002B061
:10171000BDE8F081344B5A6F1D4622F001025A6732
:10172000FEF78EFF064604E0FEF78AFF801B0228C4
:1017300022D86B6F9F07F7D44FE74A6850027FF5B6
:1017400008AF294A126891037FF52CAF6268002A1E
:101750007FF428AFDAE71A681E4642F480721A60F6
:10176000FEF76EFF07463368DA053FF54DAFFEF72B
:1017700067FFC01B6428F6D9032002B0BDE8F081E2
:10178000194920690A6822F0F80242EAC0020A6098
:101790000AE701207047144B1A681D4622F4803274
:1017A0001A601A6822F480221A60FEF749FF064682
:1017B00004E0FEF745FF801B6428DDD82B689B03FF
:1017C000F7D4EEE600251AE7074B41F288381A6F86
:1017D0001E4622F001021A671A6F22F004021A67ED
:1017E000FEF72EFF074608E0003802400070004078
:1017F000FEF726FFC01B4045BED8336F9807F7D4CD
:10180000002D3FF459AF52E72C4B1A681D4622F0C9
:1018100001021A60FEF714FF064604E0FEF710FF0F
:10182000801B0228A8D82B689907F7D42368BBE649
:1018300042F480221A601A6842F480321A60A2E6EA
:1018400042F004021A671A6F42F001021A671DE79C
:1018500023F0807315461360FEF7F2FE064604E09F
:10186000FEF7EEFE801B022886D82B689901F7D47C
:10187000D4E90732616A1343D4E90A2043EA8113A9
:10188000216B52080D4C43EA0063013A43EA0173AD
:1018900043EA02436B602B6843F080732B60FEF7D2
:1018A000CFFE054605E0FEF7CBFE401B02283FF6C3
:1018B00063AF23689A01F6D51AE700BF00380240EB
:1018C00078B15E4A136803F00F038B420BD21368A2
:1018D00023F00F030B431360136803F00F038B42D5
:1018E00001D00120704703682DE9F0419D0714D510
:1018F0005C0704D5524CA26842F4E052A2601A0779
:1019000004D54F4CA26842F46042A2604C4C8568FA
:10191000A26822F0F0022A43A260DF0704460D46C7
:1019200021D54268464B012A1B6863D0022A78D031
:10193000990728D5424941F288388B680E4623F032
:10194000030313438B60FEF77BFE074604E0FEF7BC
:1019500077FEC01B404562D8B368626803F00C0391
:10196000B3EB820FF3D1354A136803F00F03AB4298
:101970000CD9136823F00F032B431360136803F093
:101980000F03AB4202D00120BDE8F08123685A0763
:1019900006D52B49E0688A6822F4E05202438A6047
:1019A0001B0707D5264A2169936823F4604343EA5D
:1019B000C103936022498B6803F00C03042B1CD0F5
:1019C000082B2AD14A684B6802F03F02496813F499
:1019D000800329D11B48C1F38811A1FB0001FEF748
:1019E00097FC174B5B68C3F3014301335B00B0FB0B
:1019F000F3F303E09E039DD4C5E7134B104A002088
:101A0000124C92681249C2F30312A25CD3400B60DD
:101A100009F0CCFF0020BDE8F0810A4BEEE703207F
:101A2000B2E7980186D4AEE70748C1F388110023D6
:101A3000A1FB0001FEF76CFCD3E700BF003C0240B5
:101A4000003802400024F40000127A00600D010802
:101A500010000020164908B58B6803F00C03042B16
:101A60001BD0082B17D14A684B6802F03F02496827
:101A700013F4800313D10F48C1F38811A1FB0001B7
:101A8000FEF746FC0A4B5B68C3F3014301335B007E
:101A9000B0FBF3F008BD074808BD074808BD06487D
:101AA000C1F388110023A1FB0001FEF731FCE9E737
:101AB000003802400024F40000127A00014B18683C
:101AC000704700BF10000020044B054A9B68054981
:101AD000C3F382230868D35CD840704700380240C3
:101AE000700D010810000020044B054A9B68054951
:101AF000C3F342330868D35CD840704700380240D3
:101B0000700D0108100000200E4B0F2202609A6831
:101B100002F0030242609A6802F0F00282609A6862
:101B200002F4E052C2609B68DB0810B403F4E05397
:101B3000054C036123685DF8044B03F00F030B6051
:101B4000704700BF00380240003C024003682DE9A6
:101B5000F04313F0010683B004460BD09F4A91680E
:101B600021F400019160466B91683143B6FA86F624
:101B70007609916013F4002510D09849E56BD1F8EF
:101B80008C20B5F5801F22F4401242EA0502C1F80C
:101B90008C2000F0D481B5FA85F56D09D90210D5F5
:101BA0008E48216CD0F88C20B1F5800F22F44002D1
:101BB00042EA0102C0F88C2000F0BF81002908BF72
:101BC000012513F0807F18BF01269A0600F16D8170
:101BD000DA060CD5814AD2F88C1021F08071C2F857
:101BE0008C10D2F88C10A06B0143C2F88C105F04EB
:101BF00008D57A49606ED1F8902022F44032024331
:101C0000C1F89020180408D57449A06ED1F890202E
:101C100022F440220243C1F89020D90308D56F492D
:101C2000E06ED1F8902022F440120243C1F89020D7
:101C30009A0308D56949206FD1F8902022F4400218
:101C40000243C1F890205F0608D56449606CD1F862
:101C5000902022F003020243C1F89020180608D514
:101C60005E49A06CD1F8902022F00C020243C1F82A
:101C70009020D90508D55949E06CD1F8902022F080
:101C800030020243C1F890209A0508D55349206DCF
:101C9000D1F8902022F0C0020243C1F890205F05E5
:101CA00008D54E49606DD1F8902022F4407202436D
:101CB000C1F89020180508D54849A06DD1F89020AA
:101CC00022F440620243C1F89020D90408D5434968
:101CD000E06DD1F8902022F440520243C1F89020E8
:101CE0009A0408D53D49206ED1F8902022F4404254
:101CF0000243C1F890205F0208D53849A06FD1F89F
:101D0000902022F080620243C1F8902098020CD506
:101D10003249E06FD1F89020B0F1006F22F00062FC
:101D200008BF01250243C1F8902013F0080F18BF27
:101D30000125590308D52949606FD1F8902022F078
:101D400040720243C1F890201A0209D52349D4F801
:101D50008000D1F8902022F080520243C1F89020F8
:101D60005F0109D51D49D4F88400D1F8902022F0F4
:101D700000520243C1F89020180109D51749D4F840
:101D80008800D1F88C2022F000720243C1F88C2028
:101D9000D9000BD4B3F1007F16D0F20714D4012D73
:101DA00000F0D080002003B0BDE8F0830B49B3F110
:101DB000007FD4F88C00D1F88C2022F0806242EAB7
:101DC0000002C1F88C20E8D1044B1A681E4622F0AC
:101DD00080621A60FEF734FC074606E000380240D5
:101DE000FEF72EFCC01B64285BD833681B01F7D4B8
:101DF0002368DF0712D5626B82B9D6F88420D6F843
:101E0000847002F44032606807F07067A1683A435A
:101E100042EA801242EA0172C6F884201E0300F1F1
:101E20000F81D80204D5226CB2F5800F00F00D812D
:101E3000D90111D5A44E6068D6F88420D6F88470F4
:101E400002F07062216907F0E0473A4342EA8012EB
:101E500042EA0142C6F884209A010DD523696268DE
:101E60001B04D4E9021043EA8213974A43EA006351
:101E700043EA0173C2F88430934B1A681E4642F05D
:101E800080621A60FEF7DCFB074604E0FEF7D8FB31
:101E9000C01B642805D833681B01F7D5012D81D1FB
:101EA00050E0032003B0BDE8F083874A874B116CF4
:101EB0001F4641F080511164126C02F08052019271
:101EC000019A1A6842F480721A60FEF7B9FB8046E4
:101ED00005E0FEF7B5FBA0EB08006428E1D83B68FD
:101EE000DB05F6D5784A236B116F03F4407011F4CB
:101EF000407111D081420FD0116F176F21F44071E2
:101F000047F480371767176F27F480371767116713
:101F1000116FCF0700F1C380B0F5407F00F0B180B2
:101F200069498A6822F4F8128A60674AC3F30B038E
:101F3000116F0B43136723684AE6012641E600252B
:101F400001262BE6604B1A681D4622F080521A606B
:101F5000FEF776FB064604E0FEF772FB801B642862
:101F60009FD82B689F00F7D423681D0300F192804F
:101F7000D8021DD5226CDAB953496569D1F8882099
:101F8000D1F8886002F44032A06906F0E04632439E
:101F900042EA851242EA0062C1F88820D1F88C201A
:101FA000A06A22F4F852013842EA0022C1F88C20DB
:101FB000990215D5E26FB2F1006F11D142496569FE
:101FC000D1F88820D1F8886002F07062206A06F0AB
:101FD000E046324342EA851242EA0042C1F88820D4
:101FE0001A0719D5384A6569D2F88810D2F88830AE
:101FF00001F07061E06903F440330B4343EA851359
:1020000043EA0073C2F88830D2F88C30E16A23F4D6
:1020100040330B43C2F88C302B4B1A681C4642F0FD
:1020200080521A60FEF70CFB054605E0FEF708FB40
:10203000401B64283FF635AF23689B00F6D5B1E618
:10204000E26BB2F5801F7FF4ECAE1F4E6068D6F8ED
:102050008420D6F8847002F44032E16807F0E0474B
:102060003A4342EA801242EA0162C6F88420D6F876
:102070008C10626A21F01F01013A0A43C6F88C20D5
:10208000D6E6114812498268194022F4F8120A4330
:1020900082604AE7E26B002A3FF46EAF68E71746BA
:1020A00041F28838FEF7CCFA814606E0FEF7C8FA1E
:1020B000A0EB090040453FF6F4AE3B6F9907F5D51C
:1020C000236B03F4407027E70038024000700040A3
:1020D000FFFCFF0F704700BF002865D0F8B590F8EF
:1020E0003D30044603F0FF02002B3BD02268022063
:1020F000364E374FB2F1804FA2EB060684F83D0012
:10210000A2EB07071368B6FA86F6B7FA87F74FEA25
:1021100056164FEA57172AD04EBB2E498A4245D051
:1021200001F580618A4241D001F580618A4242D046
:10213000002F40D128498A421ED001F580618A4291
:102140001AD001F580618A4216D0A1F598318A42F1
:1021500012D001F580618A420ED001F580618A4279
:102160000ED109E080F83C20FFF7B4FFBEE723F072
:102170007005A06845EA000323F440732069034317
:10218000A16923F08003E0680B4361681360D062AB
:10219000916236B92FB901230020536184F83D3094
:1021A000F8BD63691363F6E70120704723F07003FD
:1021B000A1680B43E0E7094923F07003A0688A4255
:1021C00043EA0003D8D0002FD6D1B3E70000014086
:1021D000000401400004004000400140000C0040A9
:1021E0000368094AD96841F00101D96099680A4039
:1021F000062A06D0B2F5803F03D01A6842F00102E9
:102200001A600020704700BF07000100704700BF40
:10221000704700BF704700BF704700BF03681A696E
:10222000910710B5044602D5DA68920768D41A6996
:10223000520702D5DA6850074FD41A69110702D540
:10224000DA68120737D41A69D00602D5DA68D106DF
:102250001ED41A69D20702D5DA68D00769D41A6980
:10226000110602D5DA6812066BD41A69D00502D5B8
:10227000DA6811066DD41A69520602D5DA6850067A
:102280006FD41A69910602D5DA68920649D410BD56
:102290006FF01001082220461961DB69227713F4E0
:1022A000407F6FD1FFF7B2FF2046FFF7B3FF002258
:1022B00023682277CDE76FF00801042220461961D8
:1022C000DB6922779B075AD1FFF7A0FF2046FFF773
:1022D000A1FF002223682277B5E76FF004010222F4
:1022E000204619619B69227713F4407F44D1FFF7A0
:1022F0008DFF2046FFF78EFF0022236822779CE7A0
:102300006FF00201012219619B690277990730D1B0
:10231000FFF77CFF2046FFF77DFF0022236822772E
:1023200085E76FF0200220461A61BDE8104000F0FA
:102330002DB86FF0010220461A6108F0F9FE2368FB
:102340008DE76FF0800220461A6100F021F82368C3
:102350008BE76FF4807220461A6100F01BF8236847
:1023600089E76FF0400220461A61FFF755FF2368A6
:1023700087E7FFF74DFFD0E7FFF74AFFBCE7FFF71E
:1023800047FFA6E7FFF744FF91E700BF704700BF94
:10239000704700BF704700BF2DE9F0411D46436FF5
:1023A00082B0202B46D18846002947D0B2FA82F667
:1023B00001927609002E41D190F870300446012B2D
:1023C00038D021230121C66780F870104367FEF7DB
:1023D00037F9A368019A0746B3F5805FA4F8502047
:1023E000A4F852205DD0B4F8523020689BB2ABB153
:1023F000691C27D1C2691206FCD5B8F1000F2CD098
:1024000018F8013B8362B4F85230013B9BB2A4F848
:102410005230B4F852309BB2002BE9D1691C34D150
:10242000C3695A06FCD5002320221846626784F847
:10243000703000E0022002B0BDE8F081012002B05F
:10244000BDE8F081C3691B06D7D4FEF7F9F8C01BBD
:10245000854207D335B12068CAE736F8023BC3F39B
:102460000803CFE723682021002503201A6822F4FF
:10247000D0721A609A6822F001029A60616784F84B
:102480007050A16702B0BDE8F081C3695B06CAD491
:10249000FEF7D6F8C01B8542E4D3002DE2D02068B9
:1024A000BCE72369002B9ED1464698469BE700BFB8
:1024B000436ADA0710B406D50168846A4A6822F4D0
:1024C000003222434A609C0706D50168C46A4A6804
:1024D00022F4803222434A60590706D50168046B12
:1024E0004A6822F4802222434A601A0706D501680E
:1024F000446B4A6822F4004222434A60DC0606D557
:102500000168846B8A6822F4805222438A609906AB
:1025100006D50168C46B8A6822F4005222438A609F
:102520005A060AD50168046C4A68B4F5801F22F483
:10253000801242EA04024A600BD01B0606D50268EC
:10254000816C536823F400230B4353605DF8044B04
:1025500070474A68446C22F4C00222434A60ECE7A8
:1025600000284FD0436F70B50446002B45D0236838
:10257000242120696167A26819680243606921F01B
:102580000101BF4D0243E069196019680243E66822
:102590000D40A1692A43256A1A6041EA050259687B
:1025A000B84D21F44051AB4241EA060159609968A7
:1025B00021F4306142EA01029A6025D0B24A934286
:1025C00044D0B24A934200F0D580B14A934247D0FA
:1025D000B04A934200F0E380AF4A934200F06A8130
:1025E000AE4A934200F07981AD4A934200F03781C0
:1025F00000230120C4E9183370BD80F8703009F061
:102600002DF9B4E701207047A64BA74AD3F89030C4
:1026100003F00303D35CB0F5004F31D0082BE7D8AB
:1026200001A252F823F000BF63270008BD2600086E
:102630008F270008F1250008B5270008F1250008BC
:10264000F1250008F1250008C727000802F5FA3235
:10265000954BD2F8902002F00C0213441B79DAE774
:10266000904BD3F8903003F0C003402B00F09F80D4
:1026700071D9802B00F08880C02B00F0B980B7E7BB
:10268000082BB5D801A252F823F000BF5928000842
:102690002F28000849280008F125000843280008D1
:1026A000F1250008F1250008F1250008F7270008AA
:1026B000002B9DD1B0F5004F00F0B980FFF714FA60
:1026C000636800EB5302B2FBF3F292B2A2F1100185
:1026D0004FF6EF7399428BD823680021DA60C4E982
:1026E0001811626A002A76D15A68002122F49042B9
:1026F0005A609A6822F02A029A601A6842F001022F
:102700001A60E167FDF79CFF236806461A68120706
:1027100007D42022002362671846A26784F870302D
:1027200070BDDD6915F40015F3D1FDF789FF801B3D
:102730002368B0F1007FF4D31A682021032022F42B
:10274000D0721A609A6822F001029A60616784F878
:102750007050A16770BD002B7FF44AAFB0F5004FF9
:102760007AD0FFF7B1F9636800EB5302B2FBF3F2E2
:1027700092B2ABE74B4BD3F8903003F03003102B01
:1027800015D0E8D9202B4FD1B0F5004F5CD063684D
:10279000464A02EB5302B2FBF3F292B296E7414B88
:1027A000D3F8903003F44073B3F5807F18D1B0F5BF
:1027B000004F46D0FFF74EF9636800EB5302B2FBBF
:1027C000F3F292B282E763685A0802F50042B2FB64
:1027D000F3F292B27AE72046FFF76AFE236883E7B6
:1027E000B9D9B3F5007FCFD0B3F5407F7FF400AF08
:1027F000B0F5004FE7D16268530803F58033B3FBAF
:10280000F2F39BB2A3F110014FF6EF7291423FF643
:10281000EFAE23F00F01C3F34202002023680A4306
:10282000DA60C4E918005CE7302BE1D0E0E6FFF79E
:102830005BF96268530803EB4003B3FBF2F39BB20E
:10284000E0E7FFF707F9F4E76268194B03EB52037F
:10285000B3FBF2F39BB2D5E7FFF736F9E9E7114B8B
:10286000D3F8903003F44043B3F5804F9FD07FF608
:1028700072AFB3F5004F87D0B3F5404FB8D0B7E68D
:10288000F369FFEF001001400044004000480040A1
:10289000004C00400050004000140140007800400F
:1028A000007C004000380240340C01080024F40091
:1028B0000048E801134BD3F8903003F44063B3F5BC
:1028C000806F3FF474AF7FF6F3AEB3F5006F3FF463
:1028D0005BAFB3F5406F8BD08AE60A4BD3F89030EC
:1028E00003F44053B3F5805F3FF461AF7FF633AF3D
:1028F000B3F5005F3FF448AFB3F5405F3FF478AF06
:1029000076E600BF0038024084B030B4089D03ACC6
:10291000012D84E80E0031D1826B2D4B22F48032E0
:102920000F9982630129C26803EA0203C360C36886
:1029300023F44013C3603DD0264B01E0013B3ED061
:102940000269002AFADA0369224A43F001030361AB
:1029500001E0013A33D0036913F00103F9D1069A7B
:10296000012A07D1826842F006028260826842F042
:1029700020028260184630BC04B07047C268154B14
:1029800042F04002C26001E0013B1AD00269002A15
:10299000FADA03690F4A43F00103036101E0013AE7
:1029A0000FD0036913F00103F9D1826B42F4803236
:1029B0008263D4E7C36843F48013C360BCE7032396
:1029C000CDE7826B032342F480328263C7E700BF06
:1029D000BFFFBDFF400D030002460020936823F0B7
:1029E00001039360704700BF08B5C368012923F055
:1029F000C043C3600BD041B9C36843F08043C36098
:102A00003220FDF723FE002008BD012008BDC36869
:102A100043F00053C360F3E784B08C462DE9F047E0
:102A2000139D044609AF00200C9EC4F80401C4F8AD
:102A30000801C4F80C01C4F81001C4F81401C4F86A
:102A40001801C4F81C01C4F82001C4F82401C4F81A
:102A50002801C4F82C01C4F83001C4F83401C4F8CA
:102A60003801C4F83C0187E80E000E9B0B99A26B5D
:102A7000002D57D122F40012A263226842F04002D6
:102A80002260226842F0800222600022012B04F5BD
:102A90000067C4F8002ED4F80028C4F8002800F01D
:102AA0008E80032BD4F8003840D043F00303C4F8E1
:102AB00000384FF48462524B226102E0013B00F087
:102AC0009480206910F02000F8D110224C4B226134
:102AD00002E0013B00F08B802269D206F9D400228B
:102AE0003A617A61FA61BCF1000F26D004F51063F7
:102AF0004FF090494FF0006A96464FF67F3809E054
:102B0000C3F800E00132C3F810E0C3F808802033B6
:102B1000624536D019680029F2DA002A6CD0C3F871
:102B20000090EFE742F40012A263AEE70029BED0A6
:102B300043F00103C4F80038BBE73B69012E23F4DE
:102B400080733B6145D000226FF08043A2616361D6
:102B50001EB9A36943F01003A361A169294B0F9A21
:102B60000B43A3611AB1A36943F00803A361012DCC
:102B700003D1A269244B1343A361BDE8F04704B01D
:102B80007047002104F530634FF090494FF0006A20
:102B90008E464FF67F3809E0C3F800E00131C3F8F4
:102BA00010E0C3F8088020339142C6D0D3F800C0AB
:102BB000BCF1000FF0DAE1B1C3F80090EEE7D4F811
:102BC000003800293FF473AF43F00103C4F8003824
:102BD0006FE70E4A00210E4B3A636FF080423E6B66
:102BE00033433B63A1616261B7E701206DE70120D8
:102BF00075E7C3F800A0D1E7C3F800A082E700BFE3
:102C0000400D030000383C800400004000018000BB
:102C10000300010000F50062032008B5536843F08B
:102C200002035360FDF712FD002008BD08B501F056
:102C300061FB002008BD00BFEFF305830BB901F075
:102C400043BC01F047BC00BF30B5B0F9084085B0C7
:102C500002460B46842C03AD116814BF03340024D4
:102C6000128A4068CDE9004501F022FA01280CBF24
:102C70000398002005B030BD012000F02BBA00BF42
:102C800010B5002482B0019400B3EFF3058333B98B
:102C900000F066FF012816D1002002B010BD01AA85
:102CA000214601F0EFF801280DD1019B002BF3D054
:102CB000084B4FF080521A60BFF34F8FBFF36F8FF6
:102CC000204602B010BDFF2002B010BD802002B02F
:102CD00010BD00BF04ED00E010B5002482B00194E7
:102CE000EFF305834BB101A900F06CFD01280AD177
:102CF000019B5BB9002002B010BD1A46194600F0D6
:102D000035FB0128F6D0FF2002B010BD054B4FF077
:102D100080521A60BFF34F8FBFF36F8F204602B00F
:102D200010BD00BF04ED00E010B5EFF305841CB941
:102D300001F00AF9204610BD822010BD012910B50E
:102D40000DD108460322002100F07AF9044620B193
:102D500000231A46194600F009FB204610BD002446
:102D6000204610BD10B5002482B0019400B3EFF3EB
:102D7000058333B900F0F4FE012816D1002002B01B
:102D800010BD01AA214601F07DF801280DD1019B5B
:102D9000002BF3D0084B4FF080521A60BFF34F8FD7
:102DA000BFF36F8F204602B010BDFF2002B010BDF0
:102DB000802002B010BD00BF04ED00E010B500247B
:102DC00082B00194EFF305834BB101A900F0FAFC46
:102DD00001280AD1019B5BB9002002B010BD1A4640
:102DE000194600F0C3FA0128F6D0FF2002B010BD4A
:102DF000054B4FF080521A60BFF34F8FBFF36F8FB8
:102E0000204602B010BD00BF04ED00E010B5EFF3A6
:102E100005841CB901F098F8204610BD822010BD31
:102E20000022D0E9000100F00BB900BF10B500246A
:102E300084B0A24208BF012201910394EFF30583FD
:102E40005BB1234603AA01A900F018FC012809D1AF
:102E5000039B53B9002004B010BD01A900F086FA0D
:102E60000128F7D0FF2004B010BD054B4FF0805271
:102E70001A60BFF34F8FBFF36F8F204604B010BDB1
:102E800004ED00E030B5002385B00446CDE9023101
:102E900069B30093EFF305839BB9084602A9154671
:102EA00000F0F0FC01282DD0002D0CBF00234023A2
:102EB000019304AB13E9070084E80700204605B03E
:102EC00030BD6A46084602A900F0DCFF0128009BDD
:102ED0000CBF102200220192002BEAD00B4B4FF0C6
:102EE00080521A60BFF34F8FBFF36F8FE1E704ABDF
:102EF000802243F80C2D93E8070084E80700204661
:102F000005B030BD10230193D3E700BF04ED00E00E
:102F100000F108034FF0FF3100228160026043603E
:102F2000C0E90333704700BF00230361704700BF4F
:102F30004368026810B49C680132C1E901349C689E
:102F4000616099605DF8044B08610260704700BFE2
:102F500030B40D686B1C11D000F1080200E01A4675
:102F600053681C68AC42FAD904684B60013499601C
:102F70008A6051600861046030BC70470269536820
:102F8000F2E700BF0369D0E9012110B45C689160E9
:102F9000816884425DF8044B4A601A6808BF596032
:102FA0000021013A01611A601868704770B5054642
:102FB00001F0B8FF95F8454064B2002C16DD6B6A4D
:102FC000A3B105F1240605E0013CE3B25CB26BB1AC
:102FD0006B6A5BB1304601F069FC0028F4D0013C1B
:102FE00001F0FAFCE3B25CB2002BF1D1FF2385F8CB
:102FF000453001F0BDFF01F095FF95F8444064B203
:10300000002C16DD2B69A3B105F1100605E0013C8B
:10301000E3B25CB26BB12B695BB1304601F046FCA8
:103020000028F4D0013C01F0D7FCE3B25CB2002BE5
:10303000F1D1FF2385F84430BDE8704001F098BF1E
:10304000F8B550B94FF0500372B683F31188BFF34F
:103050006F8FBFF34F8F62B6FEE7064617460D46E9
:1030600051B101FB00F0503002F0BCF8044668B3E7
:1030700000F15003036005E0502002F0B3F804466D
:1030800020B32460C4E90F6501F04CFF2268FF25DE
:103090000020A260A06304F1100084F8445084F87A
:1030A0004550D4E90F3103FB01F3591A13440A4484
:1030B0006360E260FFF72CFF04F12400FFF728FFB4
:1030C00001F056FF84F84C702046F8BD00242046DD
:1030D000F8BD00BF2DE9F043814685B0502002F0D5
:1030E00081F80446002855D04FF0000801232060E5
:1030F00000F1100704F12406C0E90F3801F012FFB7
:103100002268C4F838803846A260D4E90F3103FB46
:1031100001F3591A13440A44FF21636084F84410F0
:10312000E26084F84510FFF7F3FE3046FFF7F0FE4B
:1031300001F01EFF256CC4F80C8084F84C90C4E9A3
:103140000088CDF804804DB34FF0500372B683F37E
:103150001188BFF36F8FBFF34F8F62B6FEE7226C0B
:10316000A56B002A40F0E18027680135002F00F0B0
:10317000E980A563636A5BB1304601F097FB38B123
:10318000794B4FF080521A60BFF34F8FBFF36F8FB0
:1031900001F0EEFE204605B0BDE8F08301F03EFCF4
:1031A00060B9019D55B14FF0500372B683F3118899
:1031B000BFF36F8FBFF34F8F62B6FEE74FF000088B
:1031C000DFF8A49101F0AEFEA26BE36B9A42C6D386
:1031D000019B002BDCD015B902A801F0ADFB01F07A
:1031E000C7FE01F067F901F09DFE94F84430FF2B13
:1031F00001D184F8448094F84530FF2B01D184F844
:10320000458001F0B5FE01A902A801F09FFB00284E
:1032100040F0858001F086FEA26BE36B9A4237D0C6
:1032200001F0A6FE01F07EFE94F845506DB2002D2F
:103230000CDD636A53B1304601F038FB08B101F090
:10324000CBFB013DEBB25DB2002BF2D1FF2384F842
:10325000453001F08DFE01F065FE94F844506DB2EA
:10326000002D0CDD236953B1384601F01FFB08B176
:1032700001F0B2FB013DEBB25DB2002BF2D1FF23B6
:1032800084F8443001F074FE01F0C6F9012599E795
:1032900001F06EFE0199384601F0B6FA01F042FEE7
:1032A00094F845506DB2002D0ADC0CE0304601F078
:1032B000FDFA08B101F090FB013DEBB25DB213B134
:1032C000636A002BF2D1FF2384F8453001F050FEF1
:1032D00001F028FE94F844506DB2002D0ADC0CE099
:1032E000384601F0E3FA08B101F076FB013DEBB29C
:1032F0005DB213B12369002BF2D1FF2384F844306F
:1033000001F036FE01F088F90028BFD14FF080535C
:10331000C9F80030BFF34F8FBFF36F8FB6E7204679
:10332000FFF744FE01F078F934E70021A0680CF0C3
:1033300010FBA368216C62680B449342A3600ED219
:10334000013516E7606801F0D5FBA563636A676025
:10335000002B7FF411AF00287FF412AF18E7236829
:103360000135A36005E700BF04ED00E02DE9F04F53
:1033700085B00192002800F01A81002900F0088130
:10338000022B0DD1C26B012A0AD04FF0500372B646
:1033900083F31188BFF36F8FBFF34F8F62B6FEE7E1
:1033A00004461F46884601F039FB60B9019B53B1C2
:1033B0004FF0500372B683F31188BFF36F8FBFF3E2
:1033C0004F8F62B6FEE701F0ADFDA7F10206A26BDA
:1033D0000025E36BB6FA86F6A9469A424FEA5616DE
:1033E00071D3002E6FD1019B002B00F0F48015B932
:1033F00002A801F0A1FA01F0BBFD01F05BF801F0B9
:1034000091FD94F84430FF2B01D184F8449094F856
:103410004530FF2B01D184F8459001F0A9FD01A9A9
:1034200002A801F093FA002840F0158101F07AFD1E
:10343000A26BE36B9A425AD001F09AFD01F072FD43
:1034400094F845506DB2002D11DD636A7BB104F133
:10345000240A01E0636A53B1504601F027FA08B12B
:1034600001F0BAFA013DEBB25DB2002BF2D1FF23BD
:1034700084F8453001F07CFD01F054FD94F844508F
:103480006DB2002D11DD23697BB104F1100A01E05A
:10349000236953B1504601F009FA08B101F09CFAD2
:1034A000013DEBB25DB2002BF2D1FF2384F8443032
:1034B00001F05EFD01F0B0F801F034FDA26BE36BAA
:1034C00001259A428DD2226CA56B002A40F087809C
:1034D00026680135002E75D0A563636A002B40F085
:1034E000938001F045FD012005B0BDE8F08F04F1A7
:1034F000100A01F03DFD0199504601F085F901F0F7
:1035000011FD94F845304FFA83FBBBF1000F13DD3A
:10351000626A8AB104F1240501E0626A62B1284658
:1035200001F0C4F908B101F057FA0BF1FF33DBB237
:103530004FFA83FB002BF0D1FF2384F8453001F0D4
:1035400017FD01F0EFFC94F844506DB2002D0ADC39
:103550000CE0504601F0AAF908B101F03DFA013D36
:10356000EBB25DB213B12369002BF2D1FF2384F8D3
:10357000443001F0FDFC01F04FF800289CD14FF0E1
:1035800080533D4A1360BFF34F8FBFF36F8F93E7B4
:10359000026C002A3FF4F4AE4FF0500372B683F38E
:1035A0001188BFF36F8FBFF34F8F62B6FEE74FF006
:1035B000500372B683F31188BFF36F8FBFF34F8F41
:1035C00062B6FEE7606801F095FAA563636A66601B
:1035D000D3B900BB85E701F0CBFC304684E7414618
:1035E00017BBA06801350CF0B4F9A368216C6268C0
:1035F0000B449342A360FFF46FAFA5632268636A34
:10360000A260002B3FF46DAF04F1240001F04EF9ED
:1036100000283FF466AF184B4FF080521A60BFF39A
:103620004F8FBFF36F8F5CE7E0680CF092F9236C6B
:10363000E2685B4221681A448A42E26002D2626810
:103640001344E360022F0DD00135A563636A002B9C
:103650003FF447AFD8E72046FFF7A8FC00F0DCFFB7
:10366000002041E7002D7FF437AF0123A363636A95
:10367000002B3FF436AFC7E704ED00E0002840D050
:103680002DE9F04779B3022B0DD1C46B012C0AD080
:103690004FF0500372B683F31188BFF36F8FBFF3FF
:1036A0004F8F62B6FEE70446994690468A4601F07F
:1036B00043FDEFF311864FF0500372B683F3118888
:1036C000BFF36F8FBFF34F8F62B6A26BE36B9A426B
:1036D00022D3A9F10200B0FA80F04009E0B986F3E4
:1036E0001188BDE8F087046C002CCCD04FF050035B
:1036F00072B683F31188BFF36F8FBFF34F8F62B63B
:10370000FEE74FF0500372B683F31188BFF36F8F5B
:10371000BFF34F8F62B6FEE794F84550226C6DB24E
:10372000A76BBAB9D4F80090B9F1000F0CD00137EB
:103730006B1CA7631FD06B1C01205BB284F8453063
:1037400086F31188BDE8F087606801F0D3F9C4F80A
:103750000490ECE75146B9F1000F10D1A0680CF0CD
:10376000F8F8A368216C62680B449342A360DED32F
:103770002368A360DBE7636AB3B90120AFE7E068C1
:103780000CF0E7F8236CE2685B4221681A448A4235
:10379000E26002D262681344E360B9F1020FC6D15D
:1037A000002FC4D0013FC2E704F1240001F07EF8ED
:1037B000B8F1000FE1D00028DFD00120C8F80000E8
:1037C0008DE700BF002832D0036C53B14FF0500397
:1037D00072B683F31188BFF36F8FBFF34F8F62B65A
:1037E000FEE7036873B370B504460D4601F0A4FC10
:1037F000EFF311864FF0500372B683F31188BFF3D5
:103800006F8FBFF34F8F62B6A26BE36B93422BD9DE
:1038100094F8453001325BB2A2635A1C20D00133C8
:1038200001205BB284F8453086F3118870BD4FF0FB
:10383000500372B683F31188BFF36F8FBFF34F8FBE
:1038400062B6FEE74368002BCDD04FF0500372B64E
:1038500083F31188BFF36F8FBFF34F8F62B6FEE71C
:10386000636A1BB90120DFE70020DDE704F12400D3
:1038700001F01CF8002DF5D00028F3D001202860BD
:10388000D2E700BF2DE9F04784B00192002800F094
:103890004B81002900F0398104460F4601F0BEF843
:1038A00060B9019B53B14FF0500372B683F3118896
:1038B000BFF36F8FBFF34F8F62B6FEE701F032FBAD
:1038C000A56B002D40F0B880019B002B68D002A8AA
:1038D000A84604F12406DFF8849201F02DF801F0E7
:1038E00047FB00F0E7FD01F01DFB94F84430FF2B8F
:1038F00000F0088194F84530FF2B00F0008101F0C2
:1039000037FB01A902A801F021F800284ED101F0EF
:1039100009FBA36B002B00F0A88001F029FB01F04C
:1039200001FB94F845506DB2002D0ADC0CE03046E6
:1039300000F0BCFF08B101F04FF8013DEBB25DB201
:1039400013B1636A002BF2D1FF2384F8453001F0F4
:103950000FFB01F0E7FA94F844506DB2002D10DD32
:10396000236973B104F1100A504600F09FFF08B1BB
:1039700001F032F8013DEBB25DB213B12369002BC7
:10398000F2D1FF2384F8443001F0F2FA00F044FE53
:1039900001F0C8FAA56B002D4ED1019B002B9ED1E2
:1039A00001F0E6FA002004B0BDE8F08701F0BAFAB1
:1039B00094F845506DB2002D0ADC0CE0304600F062
:1039C00075FF08B101F008F8013DEBB25DB213B12B
:1039D000636A002BF2D1FF2384F8453001F0C8FA66
:1039E00001F0A0FA94F844506DB2002D11DD236966
:1039F0007BB104F1100A01E0236953B1504600F095
:103A000055FF08B100F0E8FF013DEBB25DB2002BBD
:103A1000F2D1FF2384F8443001F0AAFA00F0FCFD53
:103A200001F080FAA36B002BBAD001F0A1FA01F0EB
:103A300079FAA56B002DB0D0226C5AB1E1686368A9
:103A400011449942E16002D323681946E360384685
:103A50000BF07FFF013DA5632369002B6FD101F0BF
:103A600087FA012004B0BDE8F08701F081FA0199DE
:103A7000304600F0C9FE01F055FA94F845506DB299
:103A8000002D0ADC0CE0304600F010FF08B100F019
:103A9000A3FF013DEBB25DB213B1636A002BF2D11B
:103AA000FF2384F8453001F063FA01F03BFA94F803
:103AB00044506DB2002D10DD236973B104F1100A7A
:103AC000504600F0F3FE08B100F086FF013DEBB276
:103AD0005DB213B12369002BF2D1FF2384F8443087
:103AE00001F046FA00F098FD0028A0D14FF0805375
:103AF000C9F80030BFF34F8FBFF36F8F97E784F89B
:103B00004580FCE684F84480F4E6036C002B3FF427
:103B1000C3AE4FF0500372B683F31188BFF36F8FBB
:103B2000BFF34F8F62B6FEE74FF0500372B683F3D8
:103B30001188BFF36F8FBFF34F8F62B6FEE704F1BA
:103B4000100000F0B3FE002889D0044B4FF08052E3
:103B50001A60BFF34F8FBFF36F8F80E704ED00E073
:103B60002DE9F04385B0019160B1056CADB14FF026
:103B7000500372B683F31188BFF36F8FBFF34F8F7B
:103B800062B6FEE74FF0500372B683F31188BFF3BD
:103B90006F8FBFF34F8F62B6FEE7044600F03EFF23
:103BA00060B9019D55B14FF0500372B683F311888F
:103BB000BFF36F8FBFF34F8F62B6FEE701F0B2F92C
:103BC000A36B2E460027DFF8B882002B40F0B380AD
:103BD000019B002B00F0298116B902A800F0ACFE71
:103BE00001F0C6F900F066FC01F09CF994F844304D
:103BF000FF2B01D184F8447094F84530FF2B01D19C
:103C000084F8457001F0B4F901A902A800F09EFE05
:103C1000002844D101F086F9A36B002B00F09D80B1
:103C200001F0A6F901F07EF994F8456076B2002E15
:103C300010DD636A73B104F12409484600F036FED2
:103C4000002840F08780013EF3B25EB213B1636A90
:103C5000002BF2D1FF2384F8453001F089F901F0FF
:103C600061F994F8446076B2002E10DD236973B1D7
:103C700004F11009484600F019FE002840F0BF800A
:103C8000013EF3B25EB213B12369002BF2D1FF23E0
:103C900084F8443001F06CF900F0BEFC44E001F01F
:103CA00041F994F8456076B2002E11DD636A7BB16C
:103CB00004F1240901E0636A53B1484600F0F6FDBF
:103CC00008B100F089FE013EF3B25EB2002BF2D1E2
:103CD000FF2384F8453001F04BF901F023F994F803
:103CE000446076B2002E11DD23697BB104F1100926
:103CF00001E0236953B1484600F0D8FD08B100F057
:103D00006BFE013EF3B25EB2002BF2D1FF2384F8CA
:103D1000443001F02DF900F07FFC01F003F9A36BB2
:103D2000002B7BD001F024F901F0FCF8A36B0126F5
:103D3000002B3FF44DAF013B2268A36312B900F0A2
:103D400095FF60602369002B40F08A8001F010F934
:103D5000012566E000F040FE75E701F009F92368EF
:103D6000002B52D004F124090199484600F04CFD83
:103D700001F0D8F894F8456076B2002E04DC11E02A
:103D8000013EF3B25EB26BB1636A5BB1484600F0CC
:103D90008DFD0028F4D0013E00F01EFEF3B25EB2AD
:103DA000002BF1D1FF2384F8453001F0E1F801F058
:103DB000B9F894F8446076B2002E0EDD236963B141
:103DC00004F11009484600F071FDD8B9013EF3B284
:103DD0005EB213B12369002BF4D1FF2384F8443081
:103DE00001F0C6F800F018FC00289DD14FF0805378
:103DF000C8F80030BFF34F8FBFF36F8F94E700F028
:103E0000EBFD3DE700F0E8FDE0E701F08BF86068CE
:103E100000F014FE054601F0ABF8A3E701F0A8F8A6
:103E20007DB9284605B0BDE8F083B5B14FF0500329
:103E300072B683F31188BFF36F8FBFF34F8F62B6F3
:103E4000FEE701F06FF8616A19B1236B1968C1F1DF
:103E500007016068002500F0A7FE01F089F8E0E79F
:103E600004F1100000F022FD00283FF46FAF044B76
:103E70004FF080521A60BFF34F8FBFF36F8F65E72B
:103E800004ED00E02DE9F843C8B100293DD0044617
:103E90009046894601F050F9EFF311874FF0500337
:103EA00072B683F31188BFF36F8FBFF34F8F62B683
:103EB000A56B7DB9284687F31188BDE8F8834FF0DC
:103EC000500372B683F31188BFF36F8FBFF34F8F28
:103ED00062B6FEE794F84460226C76B25AB1E168AB
:103EE000636811449942E16002D323681946E36094
:103EF00048460BF02EFD013D731CA56313D0731CC7
:103F000001205BB284F84430D5E7036C002BBED0AF
:103F10004FF0500372B683F31188BFF36F8FBFF376
:103F20004F8F62B6FEE723690BB90120C3E704F1A6
:103F3000100000F0BBFCB8F1000FF6D00028F4D060
:103F40000120C8F80000B6E7D0B1204B5A68904273
:103F500021D0DA68904236D05A69904231D0DA697D
:103F600090422CD05A6A904227D0DA6A904222D0EE
:103F70005A6B90421DD0DA6B904218D001F0B8B95C
:103F80004FF0500372B683F31188BFF36F8FBFF306
:103F90004F8F62B6FEE70022002110B403EBC2048B
:103FA00043F8321061605DF8044B01F0A1B90722BB
:103FB000F2E70622F0E70522EEE70422ECE703220F
:103FC000EAE70222E8E70122E6E700BFD85900202D
:103FD00080B5134C4FF08057124E14E000F0A2FF52
:103FE0002369DD68281DFEF7CDFFA369013BA361AE
:103FF0002368013B236000F0BBFF286B01F078F9D8
:10400000284601F075F92368002BE7D1E369012BFD
:10401000F9D93760BFF34F8FBFF36F8FF3E700BF5E
:104020009400002004ED00E0F8B51F4C06460F4652
:10403000D4F8A850D4F8AC000430FEF7A3FF50B970
:10404000D4F8AC100122D4F8B030C96A8A4023EA0F
:104050000203C4F8B030721C01D1FB071BD4AD19A8
:10406000D4F8AC305D600DD2D4F8CC00D4F8AC10EC
:104070000431FEF76DFFD4F8D030AB4201D9C4F85B
:10408000D050F8BDD4F8C800D4F8AC10BDE8F84062
:104090000431FEF75DBFD4F8AC1004480431BDE82C
:1040A000F840FEF745BF00BF940000204801002003
:1040B0002DE9F84F960080460D46994630460B9FF5
:1040C00001F090F8002800F00B8182465C2001F09E
:1040D00089F80446002800F0D680C0F830A03246A7
:1040E0005046A5210BF040FC043E236B2A781E4469
:1040F00084F834202B7826F0070A002B4DD06B78FB
:1041000084F835306B78002B47D0AB7884F83630A4
:10411000AB78002B41D0EB7884F83730EB78002B6C
:104120003BD02B7984F838302B79002B35D06B7944
:1041300084F839306B79002B2FD0AB7984F83A3082
:10414000AB7953B3EB7984F83B30EB792BB32B7A13
:1041500084F83C302B7A03B36B7A84F83D306B7A69
:10416000DBB1AB7A84F83E30AB7AB3B1EB7A84F84A
:104170003F30EB7A8BB12B7B84F840302B7B63B1E3
:104180006B7B84F841306B7B3BB1AB7B84F8423076
:10419000AB7B13B1EB7B84F843300A9D4FF0000BEF
:1041A000261D062D84F843B03046C4F850B028BF11
:1041B0000625E562E564C5F10705FEF7B5FE04F1E5
:1041C0001800FEF7B1FEC4F854B04A46A561414656
:1041D00084F858B050462461646200F075FE206097
:1041E00007B13C60404D00F09DFEAB690133AB610F
:1041F000D5F8AC30002B3DD0D5F81021E36A62B37E
:1042000005F11C080127D5F81421314603EB830082
:10421000D5F8B06007FA03F33A4408EB8000334363
:104220006264C5F8B030C5F81421FEF781FE00F0D5
:104230009FFED5F81031D3B1D5F8AC20E36AD26A2D
:104240009A4214D2294B4FF080521A60BFF34F8F1D
:10425000BFF36F8F3846BDE8F88FD5F8AC2005F175
:104260001C08D26A9A42CDD8C5F8AC40CAE7384695
:10427000BDE8F88FC5F8AC40AB69012B0AD0E36A02
:1042800005F11C08BEE7504601F032F84FF0FF3050
:10429000BDE8F88F05F11C0805F1A8094746384626
:1042A0001437FEF735FE4F45F9D1114F07F11409C8
:1042B0003846FEF72DFE4846FEF72AFE07F1280095
:1042C000FEF726FEA7F1D000FEF722FEA7F12000A0
:1042D000FEF71EFEC5F8CC70E36AC5F8C89091E7FA
:1042E0004FF0FF30B7E700BF9400002004ED00E07E
:1042F000680100202DE9F8434FF4007000F072FFD0
:10430000002800F09C8005465C2000F06BFF04460E
:10431000002800F09180A52105634FF40072284623
:104320000BF022FB236B00255D4A04F1040803F522
:10433000FE73626384F83850404684F8435023F09B
:104340000706E562C4E91355FEF7EEFD04F1180017
:10435000FEF7EAFD072365652A46A361304684F827
:1043600058505049504D2461646200F0ADFD20600A
:10437000C5F81C4100F0D6FDAB690133AB61D5F83F
:10438000AC30002B4FD0D5F81031E06A002B40D074
:1043900005F11C060123D5F81421D5F8B07041466B
:1043A0008340013200EB80003B43626406EB8000F7
:1043B000C5F81421C5F8B030FEF7BAFD00F0D8FDFD
:1043C000D5F810316BB1D5F8AC20E36AD26A9A42C5
:1043D00007D2364B4FF080521A60BFF34F8FBFF3B6
:1043E0006F8F4FF0500372B683F31188BFF36F8F56
:1043F000BFF34F8F62B600234FF0FF310122C5F8A3
:10440000D010C5F81021C5F8A830BDE8F84300F079
:104410002FBED5F8AC3005F11C06DB6A8342B9D853
:10442000C5F8AC40B6E7C5F8AC40AB69012B11D07C
:10443000E06A05F11C06ADE7284600F059FF4FF091
:10444000500372B683F31188BFF36F8FBFF34F8FA2
:1044500062B6FEE705F11C0605F1A80937463846A5
:104460001437FEF755FDB945F9D1114F07F114097D
:104470003846FEF74DFD4846FEF74AFD07F1280095
:10448000FEF746FDA7F1D000FEF742FDA7F12000A0
:10449000FEF73EFDC5F8CC70E06AC5F8C89079E734
:1044A00049444C45D13F00089400002004ED00E051
:1044B00068010020034AD2F818310133C2F81831DC
:1044C000704700BF94000020014BD3F8A80070474C
:1044D0009400002008B500F02FFE024BD3F8A8008E
:1044E00008BD00BF940000202DE9F047484CD4F8E7
:1044F0001831002B4DD1D4F8A8600136C4F8A8605B
:10450000002E54D0D4F8D0300025B34235D84FF027
:104510000109DFF8008127E0D4F8CC30DB68DF68E0
:104520007B6807F1040A9E42504665D3FEF72AFDD8
:10453000BB6A07F118000BB1FEF724FDF86A51467B
:10454000D4F8B02009FA00F300EB8000134308EB25
:104550008000C4F8B030FEF7EBFCD4F8AC30FA6A57
:10456000DB6A9A4228BF0125D4F8CC301B68002BA7
:10457000D2D14FF0FF33C4F8D030D4F8AC30DB6A7E
:1045800003EB830304EB8303DB69022B28BF0125C4
:1045900005E0D4F8243100250133C4F82431D4F8DF
:1045A0002831002B0CBF28460120BDE8F087D4F845
:1045B000CC301B6853B14FF0500372B683F31188AF
:1045C000BFF36F8FBFF34F8F62B6FEE7D4F8CC30E6
:1045D000D4F8C820C4F8CC20C4F8C830D4F82031AE
:1045E0000133C4F82031D4F8CC301B683BB94FF00C
:1045F000FF33C4F8D03085E7C4F8D030BDE7D4F835
:10460000CC30DB68DB685B68C4F8D0307AE700BF89
:1046100094000020B00000202DE9F0413B4CD4F87C
:10462000183153B94FF0500372B683F31188BFF3BA
:104630006F8FBFF34F8F62B6FEE700F073FCD4F8C4
:104640001831013BC4F81831D4F818515DBBA36987
:104650004BB3012604F11C07D4F8FC304BB3D4F85B
:104660000831DD6805F1040805F11800FEF78AFC41
:104670004046FEF787FCE86AD4F8B020414606FAC7
:1046800000F300EB8000134307EB8000C4F8B03068
:10469000FEF74EFCD4F8AC30EA6ADB6A9A42DBD310
:1046A000C4F82861D8E7002400F062FC2046BDE889
:1046B000F0813DB1D4F8CC301B68F3B94FF0FF3333
:1046C000C4F8D030D4F824514DB10126FFF70CFFC7
:1046D00008B1C4F82861013DF8D1C4F82451D4F8D8
:1046E0002831002BDFD00A4B4FF080521A60BFF305
:1046F0004F8FBFF36F8F0124D6E7D4F8CC30DB683F
:10470000DB685B68C4F8D030DCE700BF94000020B1
:1047100004ED00E008B5C0B1104BD3F8181151B149
:104720004FF0500372B683F31188BFF36F8FBFF35E
:104730004F8F62B6FEE7D3F818210132C3F8182173
:10474000FFF772FCFFF768FF38B9054B4FF0805256
:104750001A60BFF34F8FBFF36F8F08BD9400002026
:1047600004ED00E038B5264CD4F818319BBBC4F8F2
:104770002831D4F8AC301B6B1A68B2F1A53F0BD1CD
:104780005A68B2F1A53F07D19A68B2F1A53F03D1AB
:10479000DB68B3F1A53F06D0D4F8AC00D4F8AC1078
:1047A000343106F06FFAD4F8B030B3FA83F3DBB2E9
:1047B000C3F11F0303EB830189006018C26972B162
:1047C000026A104D5268294402628A4212D0D368AC
:1047D000C4F8AC3038BD0123C4F8283138BD4FF0DF
:1047E000500372B683F31188BFF36F8FBFF34F8FFF
:1047F00062B6FEE71421526801FB03431A62E6E742
:1048000094000020B800002050B94FF0500372B659
:1048100083F31188BFF36F8FBFF34F8F62B6FEE74C
:1048200070B5204C0D46D4F8AC101831FEF790FB53
:10483000D4F8A860D4F8AC000430FEF7A3FB50B95C
:10484000D4F8AC100122D4F8B030C96A8A4023EA07
:104850000203C4F8B0306B1C12D0AD19D4F8AC30E0
:104860005D6015D2D4F8CC00D4F8AC100431FEF75A
:104870006FFBD4F8D0309D4201D2C4F8D05070BD47
:10488000D4F8AC1008480431BDE87040FEF750BBC6
:10489000D4F8C800D4F8AC10BDE870400431FEF77D
:1048A00057BB00BF9400002048010020F8B5C36842
:1048B000DD68A5B305F118061E4C3046FEF762FB15
:1048C000D4F81831F3B92E1D3046FEF75BFBEA6AC7
:1048D0000123D4F8B07002EB82003146934004F11A
:1048E0001C023B4302EB8000C4F8B030FEF720FB13
:1048F000D4F8AC30EA6ADB6A9A420ED90120C4F8D7
:104900002801F8BD314604F1FC00FEF711FBD4F894
:10491000AC30EA6ADB6A9A42F0D80020F8BD4FF06A
:10492000500372B683F31188BFF36F8FBFF34F8FBD
:1049300062B6FEE794000020034BD3F82021D3F8A1
:10494000A830C0E90023704794000020F8B540B3B8
:10495000E1B10D46044600F0E5FA1E4A2B68666890
:10496000D2F8A8005F1CA0EB060125D0D2F820C128
:104970002768674501D086422AD98B421ED800237A
:1049800001262B6000F0F4FA3046F8BD4FF05003DA
:1049900072B683F31188BFF36F8FBFF34F8F62B688
:1049A000FEE74FF0500372B683F31188BFF36F8FA9
:1049B000BFF34F8F62B6FEE70026E3E75B1AD2F83B
:1049C0002011D2F8A82000262B60C4E90012D9E7F4
:1049D0000126D7E794000020024B0122C3F82821CA
:1049E000704700BF9400002060B1016B0B78A52BCD
:1049F0000FD14B1C581A13F8012BA52AFAD0C0F37B
:104A00008F007047044BD3F8AC00016B0B78A52BDB
:104A1000EFD00020704700BF94000020064BD3F871
:104A2000102132B1D3F81831002B0CBF0220002026
:104A300070470120704700BF940000202DE9F0412D
:104A40000746E0B1294DC26AD5F8AC10C96A8A425E
:104A500017D28169002905DBD5F8AC10C96AC1F10C
:104A60000701816102EB8202214E796906EB820225
:104A7000914210D0D5F8AC200120D26AFA62BDE88C
:104A8000F081D5F8AC20C06CD36A98422CBF0020CE
:104A90000120BDE8F08107F104084046FEF772FAF4
:104AA00078B9FA6A02EB820305EB8303DB6943B949
:104AB0000121D5F8B03001FA02F223EA0202C5F86A
:104AC000B020D5F8AC200124D5F8B0304146D06AEA
:104AD00004FA00F2F86200EB8000134306EB80005A
:104AE000C5F8B030FEF724FA2046C8E7940000204D
:104AF000B000002080B1F8B5294DD5F8AC30834224
:104B00000CD04FF0500372B683F31188BFF36F8F50
:104B1000BFF34F8F62B6FEE7002070471B6D53B99D
:104B20004FF0500372B683F31188BFF36F8FBFF35A
:104B30004F8F62B6FEE7C16A013BC26C03659142CA
:104B400000D00BB10020F8BD071D04463846FEF723
:104B500019FA68B9E16A142303FB0153DB693BB915
:104B60000122D5F8B0308A4023EA0203C5F8B030FC
:104B7000E36C01264FF0140C0A48D5F8B0E006FAB1
:104B800003F20CFB03003946E362C3F1070342EA78
:104B90000E02A361C5F8B020FEF7CAF93046F8BD91
:104BA00094000020B0000020C8B12DE9F041046D50
:104BB00054B94FF0500372B683F31188BFF36F8F6F
:104BC000BFF34F8F62B6FEE7C36CC26A8B4238BF39
:104BD0000B469A4201D0012C02D0BDE8F08170470B
:104BE000204DD5F8AC10814231D08169C3620029D3
:104BF00002DBC3F1070383611B4F1426436906FBE5
:104C000002729342E9D100F1040804464046FEF7DF
:104C1000B9F9E26A60B9012306FB025603FA02F011
:104C2000F3692BB9D5F8B03023EA0003C5F8B030EA
:104C30000123D5F8B04014204146934000FB027098
:104C40002343C5F8B030BDE8F041FEF771B94FF02D
:104C5000500372B683F31188BFF36F8FBFF34F8F8A
:104C600062B6FEE794000020B0000020054BD3F8A8
:104C7000AC2022B1D3F8AC100A6D01320A65D3F82A
:104C8000AC007047940000202DE9F041334C0646FB
:104C90000D4600F047F9D4F8AC305B6D2BB9D4F871
:104CA000AC30012783F85870CDB900F061F900F0FD
:104CB00039F9D4F8AC305D6D25B1D4F8AC305EB9BB
:104CC0006A1E5A65D4F8AC30002283F8582000F0F0
:104CD0004FF92846BDE8F08100225A65F2E7D4F882
:104CE000A880D4F8AC000430FEF74CF948B9D4F8E9
:104CF000AC20D4F8B030D26A974023EA0707C4F852
:104D0000B0706B1C23D015EB0805D4F8AC305D6097
:104D100015D2D4F8CC00D4F8AC100431FEF718F951
:104D2000D4F8D0309D4201D2C4F8D0500C4B4FF093
:104D300080521A60BFF34F8FBFF36F8FB5E7D4F87F
:104D4000C800D4F8AC100431FEF702F9EEE7D4F84D
:104D5000AC1004480431FEF7EBF8E7E794000020BC
:104D600004ED00E048010020F8B5A8B11F46044654
:104D700015460E4600F0D6F80FB1636D3B606B1E12
:104D8000022294F8585084F85820EDB2032B11D821
:104D9000DFE803F0504C0F0D4FF0500372B683F371
:104DA0001188BFF36F8FBFF34F8F62B6FEE7022DFE
:104DB00007D06665012D06D0012500F0D9F82846F8
:104DC000F8BD0025F9E7271D1C4E3846FEF7DAF836
:104DD000E26AD6F8B0E04FF0140C05FA02F306F1DF
:104DE0001C00394643EA0E030CFB0200C6F8B03043
:104DF000FEF79EF8A36A53B14FF0500372B683F3E7
:104E00001188BFF36F8FBFF34F8F62B6FEE7D6F8FE
:104E1000AC30E26ADB6A9A42CED9094B4FF080523D
:104E20001A60BFF34F8FBFF36F8FC6E7636D013317
:104E30006365BFE7636D1E436665BBE794000020B2
:104E400004ED00E0104B82B000221B680192013398
:104E50000AD04FF0500372B683F31188BFF36F8FFF
:104E6000BFF34F8F62B6FEE74FF0500372B683F385
:104E70001188BFF36F8FBFF34F8F62B6019B002B7A
:104E8000FCD002B0704700BF08000020084800684E
:104E9000006880F308884FF0000080F3148862B641
:104EA00061B6BFF34F8FBFF36F8F00DF00BF00000D
:104EB00008ED00E0DFF80C00016841F470010160CA
:104EC0007047000088ED00E070B403464FF0807634
:104ED000084D6FF0020421F0010140F8202C443805
:104EE000C16343F8046C43F80C5C43F8244C70BC79
:104EF000704700BF454E00080000000000000000A1
:104F0000074B19680868B0E8F04F80F30988BFF3D1
:104F10006F8F4FF0000080F311887047AFF300806F
:104F2000400100204FF0500372B683F31188BFF3A5
:104F30006F8FBFF34F8F62B60B4A13680133012B9B
:104F4000136000D07047094B1B6813F0FF0FF9D0B6
:104F50004FF0500372B683F31188BFF36F8FBFF326
:104F60004F8F62B6FEE700BF0800002004ED00E0AE
:104F7000094A136853B94FF0500372B683F311888E
:104F8000BFF36F8FBFF34F8F62B6FEE7013B136035
:104F90000BB983F31188704708000020000000005F
:104FA000EFF30980BFF36F8F154B1A681EF0100FD7
:104FB00008BF20ED108A20E9F04F10602DE90900AC
:104FC0004FF0500072B680F31188BFF34F8FBFF3DC
:104FD0006F8F62B6FFF7C6FB4FF0000080F31188B9
:104FE00009BC19680868B0E8F04F1EF0100F08BF40
:104FF000B0EC108A80F30988BFF36F8F704700BF51
:105000004001002008B54FF0500372B683F31188B9
:10501000BFF36F8FBFF34F8F62B6FFF765FA18B11A
:10502000034B4FF080521A60002383F3118808BDB0
:1050300004ED00E010B40023084A094C0721094898
:1050400013602360084C03680848A4FB03435DF821
:10505000044B9B09013B03601160704710E000E0C6
:1050600018E000E010000020D34D621014E000E0D2
:105070002C4BFF202C4930B51A7883B00724D2B2CC
:105080004C60019218701B78DBB28DF803309DF8EC
:1050900003309DF8032003F0500310060B7010D569
:1050A000062300E003469DF80320581E5200D2B2AA
:1050B0008DF803209DF803201206F3D4032B4B60D8
:1050C0000AD04FF0500372B683F31188BFF36F8F8D
:1050D000BFF34F8F62B6FEE701981B02134A00240C
:1050E000104DC0B203F4E063287010684B6040F4C8
:1050F00070001060136843F070431360FFF79AFF6D
:105100000B4B1C60FFF7D6FE0A4A136843F040437E
:105110001360FFF7BBFEFFF725FBFFF793FE20466A
:1051200003B030BD00E400E0C001002020ED00E04D
:105130000800002034EF00E0EFF305820F2A13D8B7
:10514000124B13495A680B6803F4E06393420AD97F
:105150004FF0500372B683F31188BFF36F8FBFF324
:105160004F8F62B6FEE770470A49084B525C1978C8
:105170009142E6D94FF0500372B683F31188BFF322
:105180006F8FBFF34F8F62B6FEE700BFC0010020F4
:105190000CED00E0F0E300E0114B30B41D461A685E
:1051A000824201D21346FAE75C681919884203D19A
:1051B0004168184621445960446801198A4208D15F
:1051C000A9688A4205D0D2E900512144C0E90051C2
:1051D00000E00260984230BC18BF1860704700BF02
:1051E000C8010020F8B53F4D0446FFF763F9AA68EF
:1051F000002A31D0EE6834424BD1002C49D004F162
:105200000803580702D023F007030833002B40D0CF
:105210006F699F423DD32C68DFF8C8C003E0206867
:1052200020B1A446044661689942F8D3944230D034
:10523000CA1A2068102ACCF8000036D9E0184107B5
:105240002ED04FF0500372B683F31188BFF36F8FE7
:10525000BFF34F8F62B6FEE7234B4FF00047234A60
:1052600000205E073E4622F00702686018BF073341
:10527000EF60506018BF23F007033442AA602B6030
:105280001946A2EB03031060C5E90433C1E900230A
:10529000B3D0FFF7C1F9002505F0FCFC2846F8BDA6
:1052A00042606360FFF778FF61687F1A2A693143C3
:1052B000002397426F6138BF2F6104F10805C4E9EC
:1052C0000031FFF7A9F9002DE5D06B07E6D04FF0CC
:1052D000500372B683F31188BFF36F8FBFF34F8F04
:1052E00062B6FEE7C8010020E001002086320020FF
:1052F000F8B138B5194D50F8043CEA6813420AD1A8
:105300004FF0500372B683F31188BFF36F8FBFF372
:105310004F8F62B6FEE750F8081C59B14FF05003AA
:1053200072B683F31188BFF36F8FBFF34F8F62B6EE
:10533000FEE7704723EA0203044640F8043CFFF707
:10534000B9F86A6954F8043CA4F1080013446B618D
:10535000FFF722FFBDE83840FFF75EB9C801002023
:10536000224A136880B582B00BB150689847204E2E
:10537000204F3046DFF8888004F076FB304604F09A
:1053800079FB01A9384601F059FA304604F06CFB6C
:10539000019C1CB32578032D0BD0042D43464FF000
:1053A0009B021549154815D0022D0AD00AF0E4FADF
:1053B000E4E7D4E9013098470199052000F074FB37
:1053C000DCE7D4E90213606898470199062000F0F1
:1053D0006BFBD3E7D4E901309847CFE74346692216
:1053E000054906480AF0C8FAC8E700BF9032002015
:1053F000185A002098320020140E0108340E0108BB
:10540000E40D010870B591F82F3006460D461C4892
:1054100013F0180F14D104F0B9FAE0B1062000F02F
:1054200011FB044648B30222164B66602146A56074
:105430002270E360124804F07DFAD0B9002070BDFC
:1054400004F0A4FA70B1062000F0FCFA0446A0B102
:1054500002220D4BE9E70D4BB5220D490D480AF02C
:105460008BFADBE7094BB52209490A480AF084FAAE
:10547000E9E72146062000F017FB4FF0FF3070BD32
:105480009832002049890008F9970008E40D0108C6
:105490005C0E0108340E010830B583B005460C4699
:1054A00000F076F8134B062103F10800C3E900541D
:1054B00004F02EFAA8B9104804F0C0FA30B10F4B2E
:1054C00040F2D9120E490F480AF056FA03204FF461
:1054D000806300220C4900900C4804F0CFFA03B01E
:1054E00030BD064B40F2D512094906480AF044FA8D
:1054F000E1E700BF90320020185A0020E40D0108B7
:10550000900E0108340E010861530008B40E010822
:105510006C0E010840BA80B2704700BF70B400231F
:1055200083B000F00106ADF8063029B126B103784A
:10553000013901308DF80730012927DD02390023B8
:105540004D086C1C00EB440430F8022BA0421344BD
:10555000FAD1C5EBC57501EB4501012902D10278ED
:105560008DF80620BDF80600034498B200EB134303
:1055700098B200EB134026B10302C0F307209BB2A0
:105580001843C04380B203B070BC70470023E4E707
:1055900008B504F047FA00F00DF800F029FA00F021
:1055A000B1FA01F0A1F902F057FFBDE8084001F09F
:1055B000CDB800BF114B4FF48061114A23F00303B3
:1055C00002F10C0070B5002601254FF0042419608B
:1055D00059181E7183F80454C3F800449360C2E95B
:1055E000003104F02BFA00B970BD064B4FF4CC72B9
:1055F00005490648BDE870400AF0BEB9375A002098
:105600009C320020C40E0108F40E0108340E01087B
:1056100000286DD0F8B5830704465DD14C4D2B684A
:10562000A34246D86B68A34243D94A48A4F108066E
:1056300004F01AFA14F8043C002B5AD0AB6800228C
:10564000B3422B6804F8042C88BFAE609E4262D33C
:105650006B689E4269D234F8082CB2F5806F50D83E
:105660002B6899188E420FD0087968B96868814212
:105670000AD0AA68F01A91420A8824F8082C0988EE
:1056800008BFAE601944488034F8060C19188E42E1
:105690000AD00F7947B91A52AF6834F8082CBE42C5
:1056A000134408BFA96058802A48BDE8F84004F0B8
:1056B000E1B9294B40F2AF12284929480AF05CF9B8
:1056C0002B68A34202D86B689C42AED304F0EAF97F
:1056D000BDE8F84004F0F2B91D4D4FF4D6721E4BF0
:1056E00020491F480AF048F92B68A3429AD9E0E7FD
:1056F0007047194B4FF4E0721B4919480AF03CF906
:105700009CE74FF4B172144B184915480AF034F96C
:1057100034F8082CA4E7104B40F25D1214491048ED
:105720000AF02AF96B689E4206D30B4B4FF4AF7216
:1057300010490B480AF020F914F8043C002B8AD0D9
:10574000054B40F25F120C4905480AF015F982E753
:105750009C320020A8320020C40E0108340F01083A
:10576000340E0108100F01084C0F0108B00F01089A
:10577000600F0108780F0108940F01082DE9F0412E
:1057800003314FF6FC7405460C400B2C55D9B4F58B
:10579000806F7AD83E4E3368AB423AD87268AA42DC
:1057A00037D9A5F1080735F8088CFB1AA8F10808C5
:1057B0009FB2A8EB07081FFA88F8A0453FD339D05D
:1057C000344804F051F9336835F8081C5818027948
:1057D000002A3FD10834B26833F801C03C44824209
:1057E0004FF00002A4B203EB04010A7123F804C0D5
:1057F0004F8025F8084C1A5B08BFB160B2F5806F86
:1058000001D013445C80234804F034F92846BDE8F5
:10581000F081214B4FF4FA72204921480AF0ACF88C
:105820003368AB4202D87268AA42BAD804F03AF997
:1058300004F044F92846BDE8F0810C24AAE70025CD
:10584000154B40F20622174915480AF095F82846EC
:10585000BDE8F08104F114024245D4D804F10802F5
:10586000B0683A4492B29C18A0424FF000002071F8
:105870009952678025F8082C995A88BFB460B1F511
:10588000806FC0D00B445A80BDE70025D2E700BF2F
:105890009C320020A8320020C40E0108DC0F010851
:1058A000340E0108F40F0108002873D003302DE9ED
:1058B000F0474FF6FC7707400B2F2CD9B7F5806FD8
:1058C00000F28180B846C7F58066DFF8209109F1C3
:1058D0000C0004F0C9F8D9F808A0D9F80000AAEB28
:1058E000000C1FFA8CF3B3429C460ED26FF0070EE9
:1058F000C418AEEB0302C15A25790B460A440DB910
:1059000042450ED29E429C46F2D8324804F0B2F88C
:105910000020BDE8F0874FF00C084FF47D76474635
:10592000D3E708F114039A4221D201232371A2453F
:1059300039D008F10808274804F09CF8D9F8043059
:10594000A044434527D3A3070DD0234B40F2D622D2
:10595000224923480AF010F81F4B4FF436722149B0
:105960001F480AF009F804F10800BDE8F08707F1C4
:105970000803012663449BB2C2181571C152A2F8F4
:1059800002C023802671C25AB2F5806FCFD0024484
:105990005380CCE77047104B4FF4357212491048D2
:1059A00009F0EAFFCFE7D9F80410A1420DD0234651
:1059B00001E099420AD01B8803441A79002AF8D1E1
:1059C000C9F80830B5E70020A3E72146C9F8081058
:1059D000AFE700BFA8320020C40E01084410010840
:1059E000340E010874100108141001089C320020C4
:1059F000F0B5114F0825114B4FF0000E07F12C0C9C
:105A00000F4C033357F8042BC4F800E023F00303D2
:105A100055B1002116880A460132981919601946B5
:105A2000AA4223600346F7D1BC4504D03B685D8899
:105A3000D3E90134E5E7F0BD480C01080C830020F0
:105A4000AC3200200A2838B518D8124B53F8204041
:105A500004F028F80546A3681C68C4B122681A60DF
:105A6000A30706D00C4B40F249120C490C4809F030
:105A700083FF284604F022F8204638BD064B40F24A
:105A8000871208490024064809F076FFF4E704F07D
:105A900015F8F1E7480C010898100108DC1001081E
:105AA000340E0108001101080A2819D8B9B1104BA9
:105AB00070B553F820508B070C4606D00D4B40F2C2
:105AC0009D120D490D4809F057FF03F0EBFFAB683D
:105AD0001A6822601C60BDE8704003F0EFBF704799
